{
  "contractName": "MultiSigWalletV2",
  "abi": [
    {
      "inputs": [
        {
          "internalType": "string",
          "name": "_name",
          "type": "string"
        },
        {
          "internalType": "address[]",
          "name": "_owners",
          "type": "address[]"
        },
        {
          "internalType": "uint256",
          "name": "_required",
          "type": "uint256"
        },
        {
          "internalType": "uint256",
          "name": "_value",
          "type": "uint256"
        }
      ],
      "stateMutability": "nonpayable",
      "type": "constructor"
    },
    {
      "anonymous": false,
      "inputs": [
        {
          "indexed": true,
          "internalType": "address",
          "name": "owner",
          "type": "address"
        },
        {
          "indexed": true,
          "internalType": "uint256",
          "name": "txId",
          "type": "uint256"
        }
      ],
      "name": "Approve",
      "type": "event"
    },
    {
      "anonymous": false,
      "inputs": [
        {
          "indexed": true,
          "internalType": "address",
          "name": "sender",
          "type": "address"
        },
        {
          "indexed": false,
          "internalType": "uint256",
          "name": "amount",
          "type": "uint256"
        }
      ],
      "name": "Deposit",
      "type": "event"
    },
    {
      "anonymous": false,
      "inputs": [
        {
          "indexed": true,
          "internalType": "uint256",
          "name": "txId",
          "type": "uint256"
        }
      ],
      "name": "Execute",
      "type": "event"
    },
    {
      "anonymous": false,
      "inputs": [
        {
          "indexed": true,
          "internalType": "address",
          "name": "owner",
          "type": "address"
        },
        {
          "indexed": true,
          "internalType": "uint256",
          "name": "txId",
          "type": "uint256"
        }
      ],
      "name": "Revoke",
      "type": "event"
    },
    {
      "anonymous": false,
      "inputs": [
        {
          "indexed": true,
          "internalType": "uint256",
          "name": "txId",
          "type": "uint256"
        }
      ],
      "name": "Submit",
      "type": "event"
    },
    {
      "inputs": [
        {
          "internalType": "uint256",
          "name": "",
          "type": "uint256"
        },
        {
          "internalType": "address",
          "name": "",
          "type": "address"
        }
      ],
      "name": "approved",
      "outputs": [
        {
          "internalType": "bool",
          "name": "",
          "type": "bool"
        }
      ],
      "stateMutability": "view",
      "type": "function"
    },
    {
      "inputs": [],
      "name": "faucetValue",
      "outputs": [
        {
          "internalType": "uint256",
          "name": "",
          "type": "uint256"
        }
      ],
      "stateMutability": "view",
      "type": "function"
    },
    {
      "inputs": [
        {
          "internalType": "address",
          "name": "",
          "type": "address"
        }
      ],
      "name": "isOwner",
      "outputs": [
        {
          "internalType": "bool",
          "name": "",
          "type": "bool"
        }
      ],
      "stateMutability": "view",
      "type": "function"
    },
    {
      "inputs": [
        {
          "internalType": "uint256",
          "name": "",
          "type": "uint256"
        }
      ],
      "name": "owners",
      "outputs": [
        {
          "internalType": "address",
          "name": "",
          "type": "address"
        }
      ],
      "stateMutability": "view",
      "type": "function"
    },
    {
      "inputs": [],
      "name": "required",
      "outputs": [
        {
          "internalType": "uint256",
          "name": "",
          "type": "uint256"
        }
      ],
      "stateMutability": "view",
      "type": "function"
    },
    {
      "inputs": [
        {
          "internalType": "uint256",
          "name": "",
          "type": "uint256"
        }
      ],
      "name": "transactions",
      "outputs": [
        {
          "internalType": "address",
          "name": "to",
          "type": "address"
        },
        {
          "internalType": "uint256",
          "name": "value",
          "type": "uint256"
        },
        {
          "internalType": "bytes",
          "name": "data",
          "type": "bytes"
        },
        {
          "internalType": "bool",
          "name": "executed",
          "type": "bool"
        }
      ],
      "stateMutability": "view",
      "type": "function"
    },
    {
      "inputs": [],
      "name": "walletName",
      "outputs": [
        {
          "internalType": "string",
          "name": "",
          "type": "string"
        }
      ],
      "stateMutability": "view",
      "type": "function"
    },
    {
      "stateMutability": "payable",
      "type": "receive"
    },
    {
      "inputs": [
        {
          "internalType": "address",
          "name": "_to",
          "type": "address"
        },
        {
          "internalType": "uint256",
          "name": "_value",
          "type": "uint256"
        },
        {
          "internalType": "bytes",
          "name": "_data",
          "type": "bytes"
        }
      ],
      "name": "submit",
      "outputs": [],
      "stateMutability": "nonpayable",
      "type": "function"
    },
    {
      "inputs": [
        {
          "internalType": "uint256",
          "name": "_txId",
          "type": "uint256"
        }
      ],
      "name": "approve",
      "outputs": [],
      "stateMutability": "nonpayable",
      "type": "function"
    },
    {
      "inputs": [
        {
          "internalType": "uint256",
          "name": "_txId",
          "type": "uint256"
        }
      ],
      "name": "_getApprovalCount",
      "outputs": [
        {
          "internalType": "uint256",
          "name": "count",
          "type": "uint256"
        }
      ],
      "stateMutability": "view",
      "type": "function"
    },
    {
      "inputs": [
        {
          "internalType": "uint256",
          "name": "_txId",
          "type": "uint256"
        }
      ],
      "name": "execute",
      "outputs": [],
      "stateMutability": "payable",
      "type": "function"
    },
    {
      "inputs": [
        {
          "internalType": "uint256",
          "name": "_txId",
          "type": "uint256"
        }
      ],
      "name": "revoke",
      "outputs": [],
      "stateMutability": "nonpayable",
      "type": "function"
    },
    {
      "inputs": [],
      "name": "getName",
      "outputs": [
        {
          "internalType": "string",
          "name": "",
          "type": "string"
        }
      ],
      "stateMutability": "view",
      "type": "function"
    },
    {
      "inputs": [],
      "name": "getRequired",
      "outputs": [
        {
          "internalType": "uint256",
          "name": "",
          "type": "uint256"
        }
      ],
      "stateMutability": "view",
      "type": "function"
    },
    {
      "inputs": [],
      "name": "getOwnersCount",
      "outputs": [
        {
          "internalType": "uint256",
          "name": "",
          "type": "uint256"
        }
      ],
      "stateMutability": "view",
      "type": "function"
    },
    {
      "inputs": [],
      "name": "getTxs",
      "outputs": [
        {
          "components": [
            {
              "internalType": "address",
              "name": "to",
              "type": "address"
            },
            {
              "internalType": "uint256",
              "name": "value",
              "type": "uint256"
            },
            {
              "internalType": "bytes",
              "name": "data",
              "type": "bytes"
            },
            {
              "internalType": "bool",
              "name": "executed",
              "type": "bool"
            }
          ],
          "internalType": "struct MultiSigWalletV2.Transaction[]",
          "name": "",
          "type": "tuple[]"
        }
      ],
      "stateMutability": "view",
      "type": "function"
    }
  ],
  "bytecode": "0x60806040523480156200001157600080fd5b50604051620028e1380380620028e18339818101604052810190620000379190620006d0565b60008351116200007e576040517f08c379a0000000000000000000000000000000000000000000000000000000008152600401620000759062000807565b60405180910390fd5b60008211801562000090575082518211155b620000d2576040517f08c379a0000000000000000000000000000000000000000000000000000000008152600401620000c9906200089f565b60405180910390fd5b60005b8351811015620002d6576000848281518110620000f757620000f6620008c1565b5b60200260200101519050600073ffffffffffffffffffffffffffffffffffffffff168173ffffffffffffffffffffffffffffffffffffffff16141562000174576040517f08c379a00000000000000000000000000000000000000000000000000000000081526004016200016b9062000940565b60405180910390fd5b600560008273ffffffffffffffffffffffffffffffffffffffff1673ffffffffffffffffffffffffffffffffffffffff16815260200190815260200160002060009054906101000a900460ff161562000204576040517f08c379a0000000000000000000000000000000000000000000000000000000008152600401620001fb90620009b2565b60405180910390fd5b6001600560008373ffffffffffffffffffffffffffffffffffffffff1673ffffffffffffffffffffffffffffffffffffffff16815260200190815260200160002060006101000a81548160ff0219169083151502179055506002819080600181540180825580915050600190039060005260206000200160009091909190916101000a81548173ffffffffffffffffffffffffffffffffffffffff021916908373ffffffffffffffffffffffffffffffffffffffff160217905550508080620002cd9062000a03565b915050620000d5565b508360009080519060200190620002ef92919062000308565b5081600381905550806001819055505050505062000ab6565b828054620003169062000a80565b90600052602060002090601f0160209004810192826200033a576000855562000386565b82601f106200035557805160ff191683800117855562000386565b8280016001018555821562000386579182015b828111156200038557825182559160200191906001019062000368565b5b50905062000395919062000399565b5090565b5b80821115620003b45760008160009055506001016200039a565b5090565b6000604051905090565b600080fd5b600080fd5b600080fd5b600080fd5b6000601f19601f8301169050919050565b7f4e487b7100000000000000000000000000000000000000000000000000000000600052604160045260246000fd5b6200042182620003d6565b810181811067ffffffffffffffff82111715620004435762000442620003e7565b5b80604052505050565b600062000458620003b8565b905062000466828262000416565b919050565b600067ffffffffffffffff821115620004895762000488620003e7565b5b6200049482620003d6565b9050602081019050919050565b60005b83811015620004c1578082015181840152602081019050620004a4565b83811115620004d1576000848401525b50505050565b6000620004ee620004e8846200046b565b6200044c565b9050828152602081018484840111156200050d576200050c620003d1565b5b6200051a848285620004a1565b509392505050565b600082601f8301126200053a5762000539620003cc565b5b81516200054c848260208601620004d7565b91505092915050565b600067ffffffffffffffff821115620005735762000572620003e7565b5b602082029050602081019050919050565b600080fd5b600073ffffffffffffffffffffffffffffffffffffffff82169050919050565b6000620005b68262000589565b9050919050565b620005c881620005a9565b8114620005d457600080fd5b50565b600081519050620005e881620005bd565b92915050565b600062000605620005ff8462000555565b6200044c565b905080838252602082019050602084028301858111156200062b576200062a62000584565b5b835b81811015620006585780620006438882620005d7565b8452602084019350506020810190506200062d565b5050509392505050565b600082601f8301126200067a5762000679620003cc565b5b81516200068c848260208601620005ee565b91505092915050565b6000819050919050565b620006aa8162000695565b8114620006b657600080fd5b50565b600081519050620006ca816200069f565b92915050565b60008060008060808587031215620006ed57620006ec620003c2565b5b600085015167ffffffffffffffff8111156200070e576200070d620003c7565b5b6200071c8782880162000522565b945050602085015167ffffffffffffffff81111562000740576200073f620003c7565b5b6200074e8782880162000662565b93505060406200076187828801620006b9565b92505060606200077487828801620006b9565b91505092959194509250565b600082825260208201905092915050565b7f6e756d626572206f66206f776e657220616464726573736573206d757374206260008201527f65206d6f7265207468616e207a65726f21210000000000000000000000000000602082015250565b6000620007ef60328362000780565b9150620007fc8262000791565b604082019050919050565b600060208201905081810360008301526200082281620007e0565b9050919050565b7f696e76616c6964207265717569726564206e756d626572206f66206f776e657260008201527f7300000000000000000000000000000000000000000000000000000000000000602082015250565b60006200088760218362000780565b9150620008948262000829565b604082019050919050565b60006020820190508181036000830152620008ba8162000878565b9050919050565b7f4e487b7100000000000000000000000000000000000000000000000000000000600052603260045260246000fd5b7f696e76616c696420616464726573730000000000000000000000000000000000600082015250565b600062000928600f8362000780565b91506200093582620008f0565b602082019050919050565b600060208201905081810360008301526200095b8162000919565b9050919050565b7f6f776e6572206973206e6f7420756e6971756500000000000000000000000000600082015250565b60006200099a60138362000780565b9150620009a78262000962565b602082019050919050565b60006020820190508181036000830152620009cd816200098b565b9050919050565b7f4e487b7100000000000000000000000000000000000000000000000000000000600052601160045260246000fd5b600062000a108262000695565b91507fffffffffffffffffffffffffffffffffffffffffffffffffffffffffffffffff82141562000a465762000a45620009d4565b5b600182019050919050565b7f4e487b7100000000000000000000000000000000000000000000000000000000600052602260045260246000fd5b6000600282049050600182168062000a9957607f821691505b6020821081141562000ab05762000aaf62000a51565b5b50919050565b611e1b8062000ac66000396000f3fe6080604052600436106100f75760003560e01c80638253951a1161008a578063dc8452cd11610059578063dc8452cd1461039a578063e0cedd9c146103c5578063eda8b7cd146103f0578063fe0d94c11461042d5761014c565b80638253951a146102c95780639ace38c214610306578063b759f95414610346578063cf8d8ca01461036f5761014c565b806317d7de7c116100c657806317d7de7c1461020d57806320c5429b146102385780632f54bf6e1461026157806373ff81cc1461029e5761014c565b8063025e7c27146101515780631398a5f61461018e57806314de327f146101b957806317a9eb3a146101e25761014c565b3661014c573373ffffffffffffffffffffffffffffffffffffffff167fe1fffcc4923d04b559f4d29a8bfc6cda04eb5b0d3c460751c2402c5c5cc9109c346040516101429190611379565b60405180910390a2005b600080fd5b34801561015d57600080fd5b50610178600480360381019061017391906113ca565b610449565b6040516101859190611438565b60405180910390f35b34801561019a57600080fd5b506101a3610488565b6040516101b09190611379565b60405180910390f35b3480156101c557600080fd5b506101e060048036038101906101db91906114e4565b610492565b005b3480156101ee57600080fd5b506101f761069b565b6040516102049190611379565b60405180910390f35b34801561021957600080fd5b506102226106a1565b60405161022f91906115f1565b60405180910390f35b34801561024457600080fd5b5061025f600480360381019061025a91906113ca565b610733565b005b34801561026d57600080fd5b5061028860048036038101906102839190611613565b61099e565b604051610295919061165b565b60405180910390f35b3480156102aa57600080fd5b506102b36109be565b6040516102c09190611379565b60405180910390f35b3480156102d557600080fd5b506102f060048036038101906102eb9190611676565b6109cb565b6040516102fd919061165b565b60405180910390f35b34801561031257600080fd5b5061032d600480360381019061032891906113ca565b6109fa565b60405161033d949392919061170b565b60405180910390f35b34801561035257600080fd5b5061036d600480360381019061036891906113ca565b610aef565b005b34801561037b57600080fd5b50610384610d89565b60405161039191906115f1565b60405180910390f35b3480156103a657600080fd5b506103af610e17565b6040516103bc9190611379565b60405180910390f35b3480156103d157600080fd5b506103da610e1d565b6040516103e791906118f3565b60405180910390f35b3480156103fc57600080fd5b50610417600480360381019061041291906113ca565b610f89565b6040516104249190611379565b60405180910390f35b610447600480360381019061044291906113ca565b611064565b005b6002818154811061045957600080fd5b906000526020600020016000915054906101000a900473ffffffffffffffffffffffffffffffffffffffff1681565b6000600354905090565b600560003373ffffffffffffffffffffffffffffffffffffffff1673ffffffffffffffffffffffffffffffffffffffff16815260200190815260200160002060009054906101000a900460ff1661051e576040517f08c379a000000000000000000000000000000000000000000000000000000000815260040161051590611961565b60405180910390fd5b600460405180608001604052808673ffffffffffffffffffffffffffffffffffffffff16815260200185815260200184848080601f016020809104026020016040519081016040528093929190818152602001838380828437600081840152601f19601f82011690508083019250505050505050815260200160001515815250908060018154018082558091505060019003906000526020600020906004020160009091909190915060008201518160000160006101000a81548173ffffffffffffffffffffffffffffffffffffffff021916908373ffffffffffffffffffffffffffffffffffffffff1602179055506020820151816001015560408201518160020190805190602001906106349291906112bd565b5060608201518160030160006101000a81548160ff0219169083151502179055505050600160048054905061066991906119b0565b7f08324b3d745b914e3abd4ffbfead91e3b78391a98c173202129215ab933adfbe60405160405180910390a250505050565b60015481565b6060600080546106b090611a13565b80601f01602080910402602001604051908101604052809291908181526020018280546106dc90611a13565b80156107295780601f106106fe57610100808354040283529160200191610729565b820191906000526020600020905b81548152906001019060200180831161070c57829003601f168201915b5050505050905090565b600560003373ffffffffffffffffffffffffffffffffffffffff1673ffffffffffffffffffffffffffffffffffffffff16815260200190815260200160002060009054906101000a900460ff166107bf576040517f08c379a00000000000000000000000000000000000000000000000000000000081526004016107b690611961565b60405180910390fd5b806004805490508110610807576040517f08c379a00000000000000000000000000000000000000000000000000000000081526004016107fe90611a91565b60405180910390fd5b816004818154811061081c5761081b611ab1565b5b906000526020600020906004020160030160009054906101000a900460ff161561087b576040517f08c379a000000000000000000000000000000000000000000000000000000000815260040161087290611b2c565b60405180910390fd5b60016006600085815260200190815260200160002060003373ffffffffffffffffffffffffffffffffffffffff1673ffffffffffffffffffffffffffffffffffffffff16815260200190815260200160002060006101000a81548160ff02191690831515021790556108ec57600080fd5b60006006600085815260200190815260200160002060003373ffffffffffffffffffffffffffffffffffffffff1673ffffffffffffffffffffffffffffffffffffffff16815260200190815260200160002060006101000a81548160ff021916908315150217905550823373ffffffffffffffffffffffffffffffffffffffff167fec9ab91322523c899ede7830ec9bfc992b5981cdcc27b91162fb23de5791117b60405160405180910390a3505050565b60056020528060005260406000206000915054906101000a900460ff1681565b6000600280549050905090565b60066020528160005260406000206020528060005260406000206000915091509054906101000a900460ff1681565b60048181548110610a0a57600080fd5b90600052602060002090600402016000915090508060000160009054906101000a900473ffffffffffffffffffffffffffffffffffffffff1690806001015490806002018054610a5990611a13565b80601f0160208091040260200160405190810160405280929190818152602001828054610a8590611a13565b8015610ad25780601f10610aa757610100808354040283529160200191610ad2565b820191906000526020600020905b815481529060010190602001808311610ab557829003601f168201915b5050505050908060030160009054906101000a900460ff16905084565b600560003373ffffffffffffffffffffffffffffffffffffffff1673ffffffffffffffffffffffffffffffffffffffff16815260200190815260200160002060009054906101000a900460ff16610b7b576040517f08c379a0000000000000000000000000000000000000000000000000000000008152600401610b7290611961565b60405180910390fd5b806004805490508110610bc3576040517f08c379a0000000000000000000000000000000000000000000000000000000008152600401610bba90611a91565b60405180910390fd5b816006600082815260200190815260200160002060003373ffffffffffffffffffffffffffffffffffffffff1673ffffffffffffffffffffffffffffffffffffffff16815260200190815260200160002060009054906101000a900460ff1615610c62576040517f08c379a0000000000000000000000000000000000000000000000000000000008152600401610c5990611b98565b60405180910390fd5b8260048181548110610c7757610c76611ab1565b5b906000526020600020906004020160030160009054906101000a900460ff1615610cd6576040517f08c379a0000000000000000000000000000000000000000000000000000000008152600401610ccd90611b2c565b60405180910390fd5b60016006600086815260200190815260200160002060003373ffffffffffffffffffffffffffffffffffffffff1673ffffffffffffffffffffffffffffffffffffffff16815260200190815260200160002060006101000a81548160ff021916908315150217905550833373ffffffffffffffffffffffffffffffffffffffff167f90ec57f18fa7b15c6b8d5e4d1deb90796c74b2ff23d4d0cecad0cb42a96b312860405160405180910390a350505050565b60008054610d9690611a13565b80601f0160208091040260200160405190810160405280929190818152602001828054610dc290611a13565b8015610e0f5780601f10610de457610100808354040283529160200191610e0f565b820191906000526020600020905b815481529060010190602001808311610df257829003601f168201915b505050505081565b60035481565b60606004805480602002602001604051908101604052809291908181526020016000905b82821015610f8057838290600052602060002090600402016040518060800160405290816000820160009054906101000a900473ffffffffffffffffffffffffffffffffffffffff1673ffffffffffffffffffffffffffffffffffffffff1673ffffffffffffffffffffffffffffffffffffffff16815260200160018201548152602001600282018054610ed490611a13565b80601f0160208091040260200160405190810160405280929190818152602001828054610f0090611a13565b8015610f4d5780601f10610f2257610100808354040283529160200191610f4d565b820191906000526020600020905b815481529060010190602001808311610f3057829003601f168201915b505050505081526020016003820160009054906101000a900460ff16151515158152505081526020019060010190610e41565b50505050905090565b6000805b60028054905081101561105e5760066000848152602001908152602001600020600060028381548110610fc357610fc2611ab1565b5b9060005260206000200160009054906101000a900473ffffffffffffffffffffffffffffffffffffffff1673ffffffffffffffffffffffffffffffffffffffff1673ffffffffffffffffffffffffffffffffffffffff16815260200190815260200160002060009054906101000a900460ff161561104b576001826110489190611bb8565b91505b808061105690611c0e565b915050610f8d565b50919050565b8060048054905081106110ac576040517f08c379a00000000000000000000000000000000000000000000000000000000081526004016110a390611a91565b60405180910390fd5b81600481815481106110c1576110c0611ab1565b5b906000526020600020906004020160030160009054906101000a900460ff1615611120576040517f08c379a000000000000000000000000000000000000000000000000000000000815260040161111790611b2c565b60405180910390fd5b60035461112c84610f89565b101561116d576040517f08c379a000000000000000000000000000000000000000000000000000000000815260040161116490611ca3565b60405180910390fd5b60006004848154811061118357611182611ab1565b5b9060005260206000209060040201905060018160030160006101000a81548160ff02191690831515021790555060008160000160009054906101000a900473ffffffffffffffffffffffffffffffffffffffff1673ffffffffffffffffffffffffffffffffffffffff168260010154836002016040516112039190611d62565b60006040518083038185875af1925050503d8060008114611240576040519150601f19603f3d011682016040523d82523d6000602084013e611245565b606091505b5050905080611289576040517f08c379a000000000000000000000000000000000000000000000000000000000815260040161128090611dc5565b60405180910390fd5b847fddb556f1d2c1ec821e910b019d3685b229db152a0ecd517ca7e24b8bd713928960405160405180910390a25050505050565b8280546112c990611a13565b90600052602060002090601f0160209004810192826112eb5760008555611332565b82601f1061130457805160ff1916838001178555611332565b82800160010185558215611332579182015b82811115611331578251825591602001919060010190611316565b5b50905061133f9190611343565b5090565b5b8082111561135c576000816000905550600101611344565b5090565b6000819050919050565b61137381611360565b82525050565b600060208201905061138e600083018461136a565b92915050565b600080fd5b600080fd5b6113a781611360565b81146113b257600080fd5b50565b6000813590506113c48161139e565b92915050565b6000602082840312156113e0576113df611394565b5b60006113ee848285016113b5565b91505092915050565b600073ffffffffffffffffffffffffffffffffffffffff82169050919050565b6000611422826113f7565b9050919050565b61143281611417565b82525050565b600060208201905061144d6000830184611429565b92915050565b61145c81611417565b811461146757600080fd5b50565b60008135905061147981611453565b92915050565b600080fd5b600080fd5b600080fd5b60008083601f8401126114a4576114a361147f565b5b8235905067ffffffffffffffff8111156114c1576114c0611484565b5b6020830191508360018202830111156114dd576114dc611489565b5b9250929050565b600080600080606085870312156114fe576114fd611394565b5b600061150c8782880161146a565b945050602061151d878288016113b5565b935050604085013567ffffffffffffffff81111561153e5761153d611399565b5b61154a8782880161148e565b925092505092959194509250565b600081519050919050565b600082825260208201905092915050565b60005b83811015611592578082015181840152602081019050611577565b838111156115a1576000848401525b50505050565b6000601f19601f8301169050919050565b60006115c382611558565b6115cd8185611563565b93506115dd818560208601611574565b6115e6816115a7565b840191505092915050565b6000602082019050818103600083015261160b81846115b8565b905092915050565b60006020828403121561162957611628611394565b5b60006116378482850161146a565b91505092915050565b60008115159050919050565b61165581611640565b82525050565b6000602082019050611670600083018461164c565b92915050565b6000806040838503121561168d5761168c611394565b5b600061169b858286016113b5565b92505060206116ac8582860161146a565b9150509250929050565b600081519050919050565b600082825260208201905092915050565b60006116dd826116b6565b6116e781856116c1565b93506116f7818560208601611574565b611700816115a7565b840191505092915050565b60006080820190506117206000830187611429565b61172d602083018661136a565b818103604083015261173f81856116d2565b905061174e606083018461164c565b95945050505050565b600081519050919050565b600082825260208201905092915050565b6000819050602082019050919050565b61178c81611417565b82525050565b61179b81611360565b82525050565b600082825260208201905092915050565b60006117bd826116b6565b6117c781856117a1565b93506117d7818560208601611574565b6117e0816115a7565b840191505092915050565b6117f481611640565b82525050565b60006080830160008301516118126000860182611783565b5060208301516118256020860182611792565b506040830151848203604086015261183d82826117b2565b915050606083015161185260608601826117eb565b508091505092915050565b600061186983836117fa565b905092915050565b6000602082019050919050565b600061188982611757565b6118938185611762565b9350836020820285016118a585611773565b8060005b858110156118e157848403895281516118c2858261185d565b94506118cd83611871565b925060208a019950506001810190506118a9565b50829750879550505050505092915050565b6000602082019050818103600083015261190d818461187e565b905092915050565b7f6d73672e73656e646572206d757374206265206f776e65722061646472657373600082015250565b600061194b602083611563565b915061195682611915565b602082019050919050565b6000602082019050818103600083015261197a8161193e565b9050919050565b7f4e487b7100000000000000000000000000000000000000000000000000000000600052601160045260246000fd5b60006119bb82611360565b91506119c683611360565b9250828210156119d9576119d8611981565b5b828203905092915050565b7f4e487b7100000000000000000000000000000000000000000000000000000000600052602260045260246000fd5b60006002820490506001821680611a2b57607f821691505b60208210811415611a3f57611a3e6119e4565b5b50919050565b7f747820646f6573206e6f74206578697374000000000000000000000000000000600082015250565b6000611a7b601183611563565b9150611a8682611a45565b602082019050919050565b60006020820190508181036000830152611aaa81611a6e565b9050919050565b7f4e487b7100000000000000000000000000000000000000000000000000000000600052603260045260246000fd5b7f7468697320747820616c72656164792065786563757465640000000000000000600082015250565b6000611b16601883611563565b9150611b2182611ae0565b602082019050919050565b60006020820190508181036000830152611b4581611b09565b9050919050565b7f747820616c726561647920617070726f76656400000000000000000000000000600082015250565b6000611b82601383611563565b9150611b8d82611b4c565b602082019050919050565b60006020820190508181036000830152611bb181611b75565b9050919050565b6000611bc382611360565b9150611bce83611360565b9250827fffffffffffffffffffffffffffffffffffffffffffffffffffffffffffffffff03821115611c0357611c02611981565b5b828201905092915050565b6000611c1982611360565b91507fffffffffffffffffffffffffffffffffffffffffffffffffffffffffffffffff821415611c4c57611c4b611981565b5b600182019050919050565b7f617070726f76616c73203c207265717569726564000000000000000000000000600082015250565b6000611c8d601483611563565b9150611c9882611c57565b602082019050919050565b60006020820190508181036000830152611cbc81611c80565b9050919050565b600081905092915050565b60008190508160005260206000209050919050565b60008154611cf081611a13565b611cfa8186611cc3565b94506001821660008114611d155760018114611d2657611d59565b60ff19831686528186019350611d59565b611d2f85611cce565b60005b83811015611d5157815481890152600182019150602081019050611d32565b838801955050505b50505092915050565b6000611d6e8284611ce3565b915081905092915050565b7f7478206661696c69640000000000000000000000000000000000000000000000600082015250565b6000611daf600983611563565b9150611dba82611d79565b602082019050919050565b60006020820190508181036000830152611dde81611da2565b905091905056fea26469706673582212203d3690f4209fbb25f476bbbd9077ca370ca3480b26bc323d480ed8d7d55de11564736f6c63430008090033",
  "immutableReferences": {},
  "source": "// SPDX-License-Identifier: MIT\npragma solidity >=0.8.9;\n\n/**\n * MultiSigWallet\n */\ncontract MultiSigWalletV2 {\n    // \n    struct Transaction {\n        // \n        address to;\n        // \n        uint256 value;\n        // \n        bytes data;\n        // \n        bool executed;\n    }\n\n    // \n    string public walletName;\n    // faucet value\n    uint256 public faucetValue;\n\n    // Owner\n    address[] public owners;\n    // \n    uint256 public required;\n    // \n    Transaction[] public transactions;\n\n    // ownermap\n    mapping(address => bool) public isOwner;\n    // IDonwermap\n    mapping(uint256 => mapping(address => bool)) public approved;\n\n    // \n    event Deposit(address indexed sender, uint256 amount);\n    event Submit(uint256 indexed txId);\n    event Approve(address indexed owner, uint256 indexed txId);\n    event Revoke(address indexed owner, uint256 indexed txId);\n    event Execute(uint256 indexed txId);\n\n    // owner\n    modifier onlyOwner() {\n        require(isOwner[msg.sender], \"msg.sender must be owner address\");\n        _;\n    }\n\n    // ID\n    modifier txExists(uint256 _txId) {\n        require(_txId < transactions.length, \"tx does not exist\");\n        _;\n    }\n\n    // \n    modifier notApproved(uint256 _txId) {\n        require(!approved[_txId][msg.sender], \"tx already approved\");\n        _;\n    }\n\n    // ID\n    modifier notExecuted(uint256 _txId) {\n        require(!transactions[_txId].executed, \"this tx already executed\");\n        _;\n    }\n\n    /**\n     * \n     * @param _name \n     * @param _owners owner\n     * @param _required \n     * @param _value Faucetvalue\n     */\n    constructor(\n        string memory _name,\n        address[] memory _owners,\n        uint256 _required,\n        uint256 _value\n    ) {\n        // \n        require(\n            _owners.length > 0,\n            \"number of owner addresses must be more than zero!!\"\n        );\n        require(\n            _required > 0 && _required <= _owners.length,\n            \"invalid required number of owners\"\n        );\n\n        // ownermap\n        for (uint256 i; i < _owners.length; i++) {\n            // owner\n            address owner = _owners[i];\n            // owner\n            require(owner != address(0), \"invalid address\");\n            // \n            require(!isOwner[owner], \"owner is not unique\");\n            // map\n            isOwner[owner] = true;\n            owners.push(owner);\n        }\n\n        // \n        walletName = _name;\n        // \n        required = _required;\n        // faucet value\n        faucetValue = _value;\n    }\n\n    /**\n     * \n     */\n    receive() external payable {\n        // \n        emit Deposit(msg.sender, msg.value);\n    }\n\n    /**\n     * \n     * @param _to \n     * @param _value \n     * @param _data \n     */\n    function submit(\n        address _to,\n        uint256 _value,\n        bytes calldata _data\n    ) external onlyOwner {\n        // Transaction\n        transactions.push(\n            Transaction({to: _to, value: _value, data: _data, executed: false})\n        );\n        // \n        emit Submit(transactions.length - 1);\n    }\n\n    /**\n     * ID\n     * @param _txId ID\n     */\n    function approve(uint256 _txId)\n        external\n        onlyOwner\n        txExists(_txId)\n        notApproved(_txId)\n        notExecuted(_txId)\n    {\n        // \n        approved[_txId][msg.sender] = true;\n        // \n        emit Approve(msg.sender, _txId);\n    }\n\n    /**\n     * ID\n     * @param _txId ID\n     */\n    function _getApprovalCount(uint256 _txId)\n        public\n        view\n        returns (uint256 count)\n    {\n        // \n        for (uint256 i; i < owners.length; i++) {\n            // count\n            if (approved[_txId][owners[i]]) {\n                count += 1;\n            }\n        }\n    }\n\n    /**\n     * \n     * @param _txId ID\n     */\n    function execute(uint256 _txId)\n        external\n        payable\n        txExists(_txId)\n        notExecuted(_txId)\n    {\n        // \n        require(_getApprovalCount(_txId) >= required, \"approvals < required\");\n        // \n        Transaction storage transaction = transactions[_txId];\n        // \n        transaction.executed = true;\n        // \n        (bool success, ) = payable(transaction.to).call{\n            value: transaction.value\n        }(transaction.data);\n        // \n        require(success, \"tx failid\");\n        // \n        emit Execute(_txId);\n    }\n\n    /**\n     * \n     * @param _txId ID\n     */\n    function revoke(uint256 _txId)\n        external\n        onlyOwner\n        txExists(_txId)\n        notExecuted(_txId)\n    {\n        // \n        require(approved[_txId][msg.sender] = true);\n        // \n        approved[_txId][msg.sender] = false;\n        // \n        emit Revoke(msg.sender, _txId);\n    }\n\n    /**\n     * \n     */\n    function getName() public view returns (string memory) {\n        return walletName;\n    }\n\n    /**\n     * \n     */\n    function getRequired() public view returns (uint256) {\n        return required;\n    }\n\n    /**\n     * owner\n     */\n    function getOwnersCount() public view returns (uint256) {\n        return owners.length;\n    }\n\n    /**\n     * \n     */\n    function getTxs() public view returns (Transaction[] memory) {\n        return transactions;\n    }\n}\n",
  "sourcePath": "/Users/harukikondo/git/FlowRepo/backend/contracts/Wallet/MultiSigWalletV2.sol",
  "compiler": {
    "name": "solc",
    "version": "0.8.9+commit.e5eed63a.Emscripten.clang"
  },
  "schemaVersion": "3.4.4",
  "updatedAt": "2022-10-24T12:43:32.156Z",
  "devdoc": {
    "kind": "dev",
    "methods": {
      "_getApprovalCount(uint256)": {
        "params": {
          "_txId": "ID"
        }
      },
      "approve(uint256)": {
        "params": {
          "_txId": "ID"
        }
      },
      "constructor": {
        "params": {
          "_name": "",
          "_owners": "owner",
          "_required": "",
          "_value": "Faucetvalue"
        }
      },
      "execute(uint256)": {
        "params": {
          "_txId": "ID"
        }
      },
      "revoke(uint256)": {
        "params": {
          "_txId": "ID"
        }
      },
      "submit(address,uint256,bytes)": {
        "params": {
          "_data": "",
          "_to": "",
          "_value": ""
        }
      }
    },
    "version": 1
  },
  "userdoc": {
    "kind": "user",
    "methods": {
      "_getApprovalCount(uint256)": {
        "notice": "ID"
      },
      "approve(uint256)": {
        "notice": "ID"
      },
      "constructor": {
        "notice": ""
      },
      "execute(uint256)": {
        "notice": ""
      },
      "getName()": {
        "notice": ""
      },
      "getOwnersCount()": {
        "notice": "owner"
      },
      "getRequired()": {
        "notice": ""
      },
      "getTxs()": {
        "notice": ""
      },
      "revoke(uint256)": {
        "notice": ""
      },
      "submit(address,uint256,bytes)": {
        "notice": ""
      }
    },
    "notice": "MultiSigWallet",
    "version": 1
  }
}