{
  "contractName": "WalletFactoryV3",
  "abi": [
    {
      "anonymous": false,
      "inputs": [
        {
          "indexed": false,
          "internalType": "string",
          "name": "_userId",
          "type": "string"
        },
        {
          "indexed": false,
          "internalType": "address",
          "name": "wAddress",
          "type": "address"
        }
      ],
      "name": "Create",
      "type": "event"
    },
    {
      "inputs": [
        {
          "internalType": "string",
          "name": "",
          "type": "string"
        }
      ],
      "name": "isRegistered",
      "outputs": [
        {
          "internalType": "bool",
          "name": "",
          "type": "bool"
        }
      ],
      "stateMutability": "view",
      "type": "function"
    },
    {
      "inputs": [],
      "name": "userId",
      "outputs": [
        {
          "internalType": "string",
          "name": "",
          "type": "string"
        }
      ],
      "stateMutability": "view",
      "type": "function"
    },
    {
      "inputs": [
        {
          "internalType": "string",
          "name": "",
          "type": "string"
        }
      ],
      "name": "walletMap",
      "outputs": [
        {
          "internalType": "address",
          "name": "",
          "type": "address"
        }
      ],
      "stateMutability": "view",
      "type": "function"
    },
    {
      "inputs": [
        {
          "internalType": "string",
          "name": "_userId",
          "type": "string"
        }
      ],
      "name": "createCoreWallet",
      "outputs": [],
      "stateMutability": "nonpayable",
      "type": "function"
    }
  ],
  "bytecode": "0x608060405234801561001057600080fd5b50610de6806100206000396000f3fe60806040523480156200001157600080fd5b5060043610620000525760003560e01c8063589759191462000057578063b256a3e41462000079578063c822d7f01462000099578063d83613e014620000cf575b600080fd5b6200006162000105565b60405162000070919062000457565b60405180910390f35b620000976004803603810190620000919190620005e0565b6200019b565b005b620000b76004803603810190620000b19190620005e0565b62000326565b604051620000c691906200064e565b60405180910390f35b620000ed6004803603810190620000e79190620005e0565b6200035c565b604051620000fc9190620006b0565b60405180910390f35b600080546200011490620006fc565b80601f01602080910402602001604051908101604052809291908181526020018280546200014290620006fc565b8015620001935780601f10620001675761010080835404028352916020019162000193565b820191906000526020600020905b8154815290600101906020018083116200017557829003601f168201915b505050505081565b600281604051620001ad919062000774565b908152602001604051809103902060009054906101000a900460ff16156200020c576040517f08c379a0000000000000000000000000000000000000000000000000000000008152600401620002039062000803565b60405180910390fd5b6000816040516200021d90620003a5565b62000229919062000457565b604051809103906000f08015801562000246573d6000803e3d6000fd5b5090506000819050600160028460405162000262919062000774565b908152602001604051809103902060006101000a81548160ff021916908315150217905550806003846040516200029a919062000774565b908152602001604051809103902060006101000a81548173ffffffffffffffffffffffffffffffffffffffff021916908373ffffffffffffffffffffffffffffffffffffffff1602179055507fb27bb48959e661e2ff2784657a44fb5baa6c91210a608d6f656f51820a9bb52883826040516200031992919062000825565b60405180910390a1505050565b6002818051602081018201805184825260208301602085012081835280955050505050506000915054906101000a900460ff1681565b6003818051602081018201805184825260208301602085012081835280955050505050506000915054906101000a900473ffffffffffffffffffffffffffffffffffffffff1681565b610557806200085a83390190565b600081519050919050565b600082825260208201905092915050565b60005b83811015620003ef578082015181840152602081019050620003d2565b83811115620003ff576000848401525b50505050565b6000601f19601f8301169050919050565b60006200042382620003b3565b6200042f8185620003be565b935062000441818560208601620003cf565b6200044c8162000405565b840191505092915050565b6000602082019050818103600083015262000473818462000416565b905092915050565b6000604051905090565b600080fd5b600080fd5b600080fd5b600080fd5b7f4e487b7100000000000000000000000000000000000000000000000000000000600052604160045260246000fd5b620004d38262000405565b810181811067ffffffffffffffff82111715620004f557620004f462000499565b5b80604052505050565b60006200050a6200047b565b9050620005188282620004c8565b919050565b600067ffffffffffffffff8211156200053b576200053a62000499565b5b620005468262000405565b9050602081019050919050565b82818337600083830152505050565b60006200057962000573846200051d565b620004fe565b90508281526020810184848401111562000598576200059762000494565b5b620005a584828562000553565b509392505050565b600082601f830112620005c557620005c46200048f565b5b8135620005d784826020860162000562565b91505092915050565b600060208284031215620005f957620005f862000485565b5b600082013567ffffffffffffffff8111156200061a57620006196200048a565b5b6200062884828501620005ad565b91505092915050565b60008115159050919050565b620006488162000631565b82525050565b60006020820190506200066560008301846200063d565b92915050565b600073ffffffffffffffffffffffffffffffffffffffff82169050919050565b600062000698826200066b565b9050919050565b620006aa816200068b565b82525050565b6000602082019050620006c760008301846200069f565b92915050565b7f4e487b7100000000000000000000000000000000000000000000000000000000600052602260045260246000fd5b600060028204905060018216806200071557607f821691505b602082108114156200072c576200072b620006cd565b5b50919050565b600081905092915050565b60006200074a82620003b3565b62000756818562000732565b935062000768818560208601620003cf565b80840191505092915050565b60006200078282846200073d565b915081905092915050565b7f746869732075736572494420697320616c72656164792072656769737465726560008201527f642e000000000000000000000000000000000000000000000000000000000000602082015250565b6000620007eb602283620003be565b9150620007f8826200078d565b604082019050919050565b600060208201905081810360008301526200081e81620007dc565b9050919050565b6000604082019050818103600083015262000841818562000416565b90506200085260208301846200069f565b939250505056fe608060405234801561001057600080fd5b5060405161055738038061055783398181016040528101906100329190610270565b806000908051906020019061004892919061004f565b505061031a565b82805461005b906102e8565b90600052602060002090601f01602090048101928261007d57600085556100c4565b82601f1061009657805160ff19168380011785556100c4565b828001600101855582156100c4579182015b828111156100c35782518255916020019190600101906100a8565b5b5090506100d191906100d5565b5090565b5b808211156100ee5760008160009055506001016100d6565b5090565b6000604051905090565b600080fd5b600080fd5b600080fd5b600080fd5b6000601f19601f8301169050919050565b7f4e487b7100000000000000000000000000000000000000000000000000000000600052604160045260246000fd5b61015982610110565b810181811067ffffffffffffffff8211171561017857610177610121565b5b80604052505050565b600061018b6100f2565b90506101978282610150565b919050565b600067ffffffffffffffff8211156101b7576101b6610121565b5b6101c082610110565b9050602081019050919050565b60005b838110156101eb5780820151818401526020810190506101d0565b838111156101fa576000848401525b50505050565b600061021361020e8461019c565b610181565b90508281526020810184848401111561022f5761022e61010b565b5b61023a8482856101cd565b509392505050565b600082601f83011261025757610256610106565b5b8151610267848260208601610200565b91505092915050565b600060208284031215610286576102856100fc565b5b600082015167ffffffffffffffff8111156102a4576102a3610101565b5b6102b084828501610242565b91505092915050565b7f4e487b7100000000000000000000000000000000000000000000000000000000600052602260045260246000fd5b6000600282049050600182168061030057607f821691505b60208210811415610314576103136102b9565b5b50919050565b61022e806103296000396000f3fe608060405234801561001057600080fd5b506004361061002b5760003560e01c80635897591914610030575b600080fd5b61003861004e565b6040516100459190610175565b60405180910390f35b6000805461005b906101c6565b80601f0160208091040260200160405190810160405280929190818152602001828054610087906101c6565b80156100d45780601f106100a9576101008083540402835291602001916100d4565b820191906000526020600020905b8154815290600101906020018083116100b757829003601f168201915b505050505081565b600081519050919050565b600082825260208201905092915050565b60005b838110156101165780820151818401526020810190506100fb565b83811115610125576000848401525b50505050565b6000601f19601f8301169050919050565b6000610147826100dc565b61015181856100e7565b93506101618185602086016100f8565b61016a8161012b565b840191505092915050565b6000602082019050818103600083015261018f818461013c565b905092915050565b7f4e487b7100000000000000000000000000000000000000000000000000000000600052602260045260246000fd5b600060028204905060018216806101de57607f821691505b602082108114156101f2576101f1610197565b5b5091905056fea2646970667358221220b2de31030fce64de55d3f7a11ad325ed2ae6ed2a91d492d9bded5fd7921d169164736f6c63430008090033a2646970667358221220181e0261562f9053104f872cf7516afaef7cb4cd335fcd3b4c4910cc31c0603464736f6c63430008090033",
  "immutableReferences": {},
  "source": "// SPDX-License-Identifier: MIT\npragma solidity >=0.8.9;\n\nimport \"./CoreWallet.sol\";\nimport \"./../Token/MyToken.sol\";\n\n/**\n * WalletFactoryV3 Contract\n */\ncontract WalletFactoryV3 {\n    // userID\n    string public userId;\n    // MyToken\n    MyToken IDQToken;\n\n    mapping(string => bool) public isRegistered;\n    mapping(string => address) public walletMap;\n\n    // event\n    event Create(string _userId, address wAddress);\n\n    /**\n     * create Core Wallet \n     * @param _userId userID\n     */\n    function createCoreWallet(string memory _userId) public {\n        // check \n        require(!isRegistered[_userId], \"this userID is already registered.\");\n        // create wallet\n        CoreWallet wallet = new CoreWallet(_userId);\n        // get wallet address\n        address wAddress = address(wallet);\n\n        // set mapping\n        isRegistered[_userId] = true;\n        walletMap[_userId] = wAddress;\n\n        emit Create(_userId, wAddress);\n    }\n}",
  "sourcePath": "/Users/harukikondo/git/FlowRepo/backend/contracts/Wallet/WalletFactoryV3.sol",
  "compiler": {
    "name": "solc",
    "version": "0.8.9+commit.e5eed63a.Emscripten.clang"
  },
  "schemaVersion": "3.4.4",
  "updatedAt": "2022-10-28T12:40:35.636Z",
  "devdoc": {
    "kind": "dev",
    "methods": {
      "createCoreWallet(string)": {
        "params": {
          "_userId": "userID"
        }
      }
    },
    "version": 1
  },
  "userdoc": {
    "kind": "user",
    "methods": {
      "createCoreWallet(string)": {
        "notice": "create Core Wallet "
      }
    },
    "notice": "WalletFactoryV3 Contract",
    "version": 1
  }
}