{
  "contractName": "WalletFactoryV2",
  "abi": [
    {
      "anonymous": false,
      "inputs": [
        {
          "indexed": true,
          "internalType": "contract MultiSigWallet",
          "name": "wallet",
          "type": "address"
        },
        {
          "indexed": false,
          "internalType": "string",
          "name": "name",
          "type": "string"
        },
        {
          "indexed": false,
          "internalType": "address[]",
          "name": "owners",
          "type": "address[]"
        },
        {
          "indexed": false,
          "internalType": "uint256",
          "name": "required",
          "type": "uint256"
        }
      ],
      "name": "WalletCreated",
      "type": "event"
    },
    {
      "anonymous": false,
      "inputs": [
        {
          "indexed": false,
          "internalType": "address",
          "name": "to",
          "type": "address"
        },
        {
          "indexed": false,
          "internalType": "uint256",
          "name": "amount",
          "type": "uint256"
        }
      ],
      "name": "transferIDQ",
      "type": "event"
    },
    {
      "inputs": [
        {
          "internalType": "uint256",
          "name": "",
          "type": "uint256"
        }
      ],
      "name": "wallets",
      "outputs": [
        {
          "internalType": "contract MultiSigWallet",
          "name": "",
          "type": "address"
        }
      ],
      "stateMutability": "view",
      "type": "function"
    },
    {
      "stateMutability": "payable",
      "type": "receive"
    },
    {
      "inputs": [],
      "name": "walletsCount",
      "outputs": [
        {
          "internalType": "uint256",
          "name": "",
          "type": "uint256"
        }
      ],
      "stateMutability": "view",
      "type": "function"
    },
    {
      "inputs": [
        {
          "internalType": "string",
          "name": "_name",
          "type": "string"
        },
        {
          "internalType": "address[]",
          "name": "_owners",
          "type": "address[]"
        },
        {
          "internalType": "uint256",
          "name": "_required",
          "type": "uint256"
        }
      ],
      "name": "createWallet",
      "outputs": [],
      "stateMutability": "nonpayable",
      "type": "function"
    },
    {
      "inputs": [
        {
          "internalType": "uint256",
          "name": "limit",
          "type": "uint256"
        },
        {
          "internalType": "uint256",
          "name": "offset",
          "type": "uint256"
        }
      ],
      "name": "getWallets",
      "outputs": [
        {
          "internalType": "contract MultiSigWallet[]",
          "name": "coll",
          "type": "address[]"
        }
      ],
      "stateMutability": "view",
      "type": "function"
    },
    {
      "inputs": [
        {
          "internalType": "address",
          "name": "_tokenAddr",
          "type": "address"
        },
        {
          "internalType": "uint256",
          "name": "_amount",
          "type": "uint256"
        }
      ],
      "name": "transferIDQToken",
      "outputs": [],
      "stateMutability": "nonpayable",
      "type": "function"
    }
  ],
  "bytecode": "0x608060405234801561001057600080fd5b50613a52806100206000396000f3fe608060405260043610620000555760003560e01c806329bcefdc146200006257806347b2470d14620000905780634ce9dde514620000c05780637ad71f721462000104578063d4e15c781462000148576200005d565b366200005d57005b600080fd5b3480156200006f57600080fd5b506200008e60048036038101906200008891906200076f565b62000176565b005b3480156200009d57600080fd5b50620000a8620003b7565b604051620000b79190620007c7565b60405180910390f35b348015620000cd57600080fd5b50620000ec6004803603810190620000e69190620007e4565b620003c3565b604051620000fb919062000953565b60405180910390f35b3480156200011157600080fd5b506200013060048036038101906200012a919062000977565b6200056f565b6040516200013f9190620009ba565b60405180910390f35b3480156200015557600080fd5b506200017460048036038101906200016e919062000c14565b620005af565b005b6000829050818173ffffffffffffffffffffffffffffffffffffffff166370a08231306040518263ffffffff1660e01b8152600401620001b7919062000cbf565b60206040518083038186803b158015620001d057600080fd5b505afa158015620001e5573d6000803e3d6000fd5b505050506040513d601f19601f820116820180604052508101906200020b919062000cf3565b10156200024f576040517f08c379a0000000000000000000000000000000000000000000000000000000008152600401620002469062000d86565b60405180910390fd5b8073ffffffffffffffffffffffffffffffffffffffff1663095ea7b330846040518363ffffffff1660e01b81526004016200028c92919062000da8565b602060405180830381600087803b158015620002a757600080fd5b505af1158015620002bc573d6000803e3d6000fd5b505050506040513d601f19601f82011682018060405250810190620002e2919062000e12565b508073ffffffffffffffffffffffffffffffffffffffff1663a9059cbb33846040518363ffffffff1660e01b81526004016200032092919062000da8565b602060405180830381600087803b1580156200033b57600080fd5b505af115801562000350573d6000803e3d6000fd5b505050506040513d601f19601f8201168201806040525081019062000376919062000e12565b507f2dd37767e42be9cf974ab24a1103ed202455f2e19b394874d03e432dedaebf593383604051620003aa92919062000da8565b60405180910390a1505050565b60008080549050905090565b6060620003cf620003b7565b82111562000414576040517f08c379a00000000000000000000000000000000000000000000000000000000081526004016200040b9062000e94565b60405180910390fd5b60008262000421620003b7565b6200042d919062000ee5565b90508381106200043e578362000440565b805b9050601481106200045357601462000455565b805b90508067ffffffffffffffff811115620004745762000473620009f2565b5b604051908082528060200260200182016040528015620004a35781602001602082028036833780820191505090505b50915060005b81811015620005675760008185620004c2919062000f20565b81548110620004d657620004d562000f7d565b5b9060005260206000200160009054906101000a900473ffffffffffffffffffffffffffffffffffffffff1683828151811062000517576200051662000f7d565b5b602002602001019073ffffffffffffffffffffffffffffffffffffffff16908173ffffffffffffffffffffffffffffffffffffffff168152505080806200055e9062000fac565b915050620004a9565b505092915050565b600081815481106200058057600080fd5b906000526020600020016000915054906101000a900473ffffffffffffffffffffffffffffffffffffffff1681565b6000838383604051620005c290620006ad565b620005d0939291906200114a565b604051809103906000f080158015620005ed573d6000803e3d6000fd5b5090506000819080600181540180825580915050600190039060005260206000200160009091909190916101000a81548173ffffffffffffffffffffffffffffffffffffffff021916908373ffffffffffffffffffffffffffffffffffffffff1602179055508073ffffffffffffffffffffffffffffffffffffffff167f467134363b98966f95b3f5c5b3a4fef880fcf46db0752f27f77d960d06a400708585856040516200069f939291906200114a565b60405180910390a250505050565b612887806200119683390190565b6000604051905090565b600080fd5b600080fd5b600073ffffffffffffffffffffffffffffffffffffffff82169050919050565b6000620006fc82620006cf565b9050919050565b6200070e81620006ef565b81146200071a57600080fd5b50565b6000813590506200072e8162000703565b92915050565b6000819050919050565b620007498162000734565b81146200075557600080fd5b50565b60008135905062000769816200073e565b92915050565b60008060408385031215620007895762000788620006c5565b5b600062000799858286016200071d565b9250506020620007ac8582860162000758565b9150509250929050565b620007c18162000734565b82525050565b6000602082019050620007de6000830184620007b6565b92915050565b60008060408385031215620007fe57620007fd620006c5565b5b60006200080e8582860162000758565b9250506020620008218582860162000758565b9150509250929050565b600081519050919050565b600082825260208201905092915050565b6000819050602082019050919050565b6000819050919050565b6000620008826200087c6200087684620006cf565b62000857565b620006cf565b9050919050565b6000620008968262000861565b9050919050565b6000620008aa8262000889565b9050919050565b620008bc816200089d565b82525050565b6000620008d08383620008b1565b60208301905092915050565b6000602082019050919050565b6000620008f6826200082b565b62000902818562000836565b93506200090f8362000847565b8060005b83811015620009465781516200092a8882620008c2565b97506200093783620008dc565b92505060018101905062000913565b5085935050505092915050565b600060208201905081810360008301526200096f8184620008e9565b905092915050565b60006020828403121562000990576200098f620006c5565b5b6000620009a08482850162000758565b91505092915050565b620009b4816200089d565b82525050565b6000602082019050620009d16000830184620009a9565b92915050565b600080fd5b600080fd5b6000601f19601f8301169050919050565b7f4e487b7100000000000000000000000000000000000000000000000000000000600052604160045260246000fd5b62000a2c82620009e1565b810181811067ffffffffffffffff8211171562000a4e5762000a4d620009f2565b5b80604052505050565b600062000a63620006bb565b905062000a71828262000a21565b919050565b600067ffffffffffffffff82111562000a945762000a93620009f2565b5b62000a9f82620009e1565b9050602081019050919050565b82818337600083830152505050565b600062000ad262000acc8462000a76565b62000a57565b90508281526020810184848401111562000af15762000af0620009dc565b5b62000afe84828562000aac565b509392505050565b600082601f83011262000b1e5762000b1d620009d7565b5b813562000b3084826020860162000abb565b91505092915050565b600067ffffffffffffffff82111562000b575762000b56620009f2565b5b602082029050602081019050919050565b600080fd5b600062000b8462000b7e8462000b39565b62000a57565b9050808382526020820190506020840283018581111562000baa5762000ba962000b68565b5b835b8181101562000bd7578062000bc288826200071d565b84526020840193505060208101905062000bac565b5050509392505050565b600082601f83011262000bf95762000bf8620009d7565b5b813562000c0b84826020860162000b6d565b91505092915050565b60008060006060848603121562000c305762000c2f620006c5565b5b600084013567ffffffffffffffff81111562000c515762000c50620006ca565b5b62000c5f8682870162000b06565b935050602084013567ffffffffffffffff81111562000c835762000c82620006ca565b5b62000c918682870162000be1565b925050604062000ca48682870162000758565b9150509250925092565b62000cb981620006ef565b82525050565b600060208201905062000cd6600083018462000cae565b92915050565b60008151905062000ced816200073e565b92915050565b60006020828403121562000d0c5762000d0b620006c5565b5b600062000d1c8482850162000cdc565b91505092915050565b600082825260208201905092915050565b7f696e73756666696369656e7420546f6b656e7300000000000000000000000000600082015250565b600062000d6e60138362000d25565b915062000d7b8262000d36565b602082019050919050565b6000602082019050818103600083015262000da18162000d5f565b9050919050565b600060408201905062000dbf600083018562000cae565b62000dce6020830184620007b6565b9392505050565b60008115159050919050565b62000dec8162000dd5565b811462000df857600080fd5b50565b60008151905062000e0c8162000de1565b92915050565b60006020828403121562000e2b5762000e2a620006c5565b5b600062000e3b8482850162000dfb565b91505092915050565b7f6f6666736574206f7574206f6620626f756e6473000000000000000000000000600082015250565b600062000e7c60148362000d25565b915062000e898262000e44565b602082019050919050565b6000602082019050818103600083015262000eaf8162000e6d565b9050919050565b7f4e487b7100000000000000000000000000000000000000000000000000000000600052601160045260246000fd5b600062000ef28262000734565b915062000eff8362000734565b92508282101562000f155762000f1462000eb6565b5b828203905092915050565b600062000f2d8262000734565b915062000f3a8362000734565b9250827fffffffffffffffffffffffffffffffffffffffffffffffffffffffffffffffff0382111562000f725762000f7162000eb6565b5b828201905092915050565b7f4e487b7100000000000000000000000000000000000000000000000000000000600052603260045260246000fd5b600062000fb98262000734565b91507fffffffffffffffffffffffffffffffffffffffffffffffffffffffffffffffff82141562000fef5762000fee62000eb6565b5b600182019050919050565b600081519050919050565b60005b838110156200102557808201518184015260208101905062001008565b8381111562001035576000848401525b50505050565b6000620010488262000ffa565b62001054818562000d25565b93506200106681856020860162001005565b6200107181620009e1565b840191505092915050565b600081519050919050565b600082825260208201905092915050565b6000819050602082019050919050565b620010b381620006ef565b82525050565b6000620010c78383620010a8565b60208301905092915050565b6000602082019050919050565b6000620010ed826200107c565b620010f9818562001087565b9350620011068362001098565b8060005b838110156200113d578151620011218882620010b9565b97506200112e83620010d3565b9250506001810190506200110a565b5085935050505092915050565b600060608201905081810360008301526200116681866200103b565b905081810360208301526200117c8185620010e0565b90506200118d6040830184620007b6565b94935050505056fe60806040523480156200001157600080fd5b5060405162002887380380620028878339818101604052810190620000379190620006c8565b60008251116200007e576040517f08c379a00000000000000000000000000000000000000000000000000000000081526004016200007590620007e9565b60405180910390fd5b60008111801562000090575081518111155b620000d2576040517f08c379a0000000000000000000000000000000000000000000000000000000008152600401620000c99062000881565b60405180910390fd5b60005b8251811015620002d6576000838281518110620000f757620000f6620008a3565b5b60200260200101519050600073ffffffffffffffffffffffffffffffffffffffff168173ffffffffffffffffffffffffffffffffffffffff16141562000174576040517f08c379a00000000000000000000000000000000000000000000000000000000081526004016200016b9062000922565b60405180910390fd5b600460008273ffffffffffffffffffffffffffffffffffffffff1673ffffffffffffffffffffffffffffffffffffffff16815260200190815260200160002060009054906101000a900460ff161562000204576040517f08c379a0000000000000000000000000000000000000000000000000000000008152600401620001fb9062000994565b60405180910390fd5b6001600460008373ffffffffffffffffffffffffffffffffffffffff1673ffffffffffffffffffffffffffffffffffffffff16815260200190815260200160002060006101000a81548160ff0219169083151502179055506001819080600181540180825580915050600190039060005260206000200160009091909190916101000a81548173ffffffffffffffffffffffffffffffffffffffff021916908373ffffffffffffffffffffffffffffffffffffffff160217905550508080620002cd90620009e5565b915050620000d5565b508260009080519060200190620002ef92919062000300565b508060028190555050505062000a98565b8280546200030e9062000a62565b90600052602060002090601f0160209004810192826200033257600085556200037e565b82601f106200034d57805160ff19168380011785556200037e565b828001600101855582156200037e579182015b828111156200037d57825182559160200191906001019062000360565b5b5090506200038d919062000391565b5090565b5b80821115620003ac57600081600090555060010162000392565b5090565b6000604051905090565b600080fd5b600080fd5b600080fd5b600080fd5b6000601f19601f8301169050919050565b7f4e487b7100000000000000000000000000000000000000000000000000000000600052604160045260246000fd5b6200041982620003ce565b810181811067ffffffffffffffff821117156200043b576200043a620003df565b5b80604052505050565b600062000450620003b0565b90506200045e82826200040e565b919050565b600067ffffffffffffffff821115620004815762000480620003df565b5b6200048c82620003ce565b9050602081019050919050565b60005b83811015620004b95780820151818401526020810190506200049c565b83811115620004c9576000848401525b50505050565b6000620004e6620004e08462000463565b62000444565b905082815260208101848484011115620005055762000504620003c9565b5b6200051284828562000499565b509392505050565b600082601f830112620005325762000531620003c4565b5b815162000544848260208601620004cf565b91505092915050565b600067ffffffffffffffff8211156200056b576200056a620003df565b5b602082029050602081019050919050565b600080fd5b600073ffffffffffffffffffffffffffffffffffffffff82169050919050565b6000620005ae8262000581565b9050919050565b620005c081620005a1565b8114620005cc57600080fd5b50565b600081519050620005e081620005b5565b92915050565b6000620005fd620005f7846200054d565b62000444565b905080838252602082019050602084028301858111156200062357620006226200057c565b5b835b818110156200065057806200063b8882620005cf565b84526020840193505060208101905062000625565b5050509392505050565b600082601f830112620006725762000671620003c4565b5b815162000684848260208601620005e6565b91505092915050565b6000819050919050565b620006a2816200068d565b8114620006ae57600080fd5b50565b600081519050620006c28162000697565b92915050565b600080600060608486031215620006e457620006e3620003ba565b5b600084015167ffffffffffffffff811115620007055762000704620003bf565b5b62000713868287016200051a565b935050602084015167ffffffffffffffff811115620007375762000736620003bf565b5b62000745868287016200065a565b92505060406200075886828701620006b1565b9150509250925092565b600082825260208201905092915050565b7f6e756d626572206f66206f776e657220616464726573736573206d757374206260008201527f65206d6f7265207468616e207a65726f21210000000000000000000000000000602082015250565b6000620007d160328362000762565b9150620007de8262000773565b604082019050919050565b600060208201905081810360008301526200080481620007c2565b9050919050565b7f696e76616c6964207265717569726564206e756d626572206f66206f776e657260008201527f7300000000000000000000000000000000000000000000000000000000000000602082015250565b60006200086960218362000762565b915062000876826200080b565b604082019050919050565b600060208201905081810360008301526200089c816200085a565b9050919050565b7f4e487b7100000000000000000000000000000000000000000000000000000000600052603260045260246000fd5b7f696e76616c696420616464726573730000000000000000000000000000000000600082015250565b60006200090a600f8362000762565b91506200091782620008d2565b602082019050919050565b600060208201905081810360008301526200093d81620008fb565b9050919050565b7f6f776e6572206973206e6f7420756e6971756500000000000000000000000000600082015250565b60006200097c60138362000762565b9150620009898262000944565b602082019050919050565b60006020820190508181036000830152620009af816200096d565b9050919050565b7f4e487b7100000000000000000000000000000000000000000000000000000000600052601160045260246000fd5b6000620009f2826200068d565b91507fffffffffffffffffffffffffffffffffffffffffffffffffffffffffffffffff82141562000a285762000a27620009b6565b5b600182019050919050565b7f4e487b7100000000000000000000000000000000000000000000000000000000600052602260045260246000fd5b6000600282049050600182168062000a7b57607f821691505b6020821081141562000a925762000a9162000a33565b5b50919050565b611ddf8062000aa86000396000f3fe6080604052600436106100ec5760003560e01c80638253951a1161008a578063dc8452cd11610059578063dc8452cd14610364578063e0cedd9c1461038f578063eda8b7cd146103ba578063fe0d94c1146103f757610141565b80638253951a146102935780639ace38c2146102d0578063b759f95414610310578063cf8d8ca01461033957610141565b806317d7de7c116100c657806317d7de7c146101d757806320c5429b146102025780632f54bf6e1461022b57806373ff81cc1461026857610141565b8063025e7c27146101465780631398a5f61461018357806314de327f146101ae57610141565b36610141573373ffffffffffffffffffffffffffffffffffffffff167fe1fffcc4923d04b559f4d29a8bfc6cda04eb5b0d3c460751c2402c5c5cc9109c34604051610137919061133d565b60405180910390a2005b600080fd5b34801561015257600080fd5b5061016d6004803603810190610168919061138e565b610413565b60405161017a91906113fc565b60405180910390f35b34801561018f57600080fd5b50610198610452565b6040516101a5919061133d565b60405180910390f35b3480156101ba57600080fd5b506101d560048036038101906101d091906114a8565b61045c565b005b3480156101e357600080fd5b506101ec610665565b6040516101f991906115b5565b60405180910390f35b34801561020e57600080fd5b506102296004803603810190610224919061138e565b6106f7565b005b34801561023757600080fd5b50610252600480360381019061024d91906115d7565b610962565b60405161025f919061161f565b60405180910390f35b34801561027457600080fd5b5061027d610982565b60405161028a919061133d565b60405180910390f35b34801561029f57600080fd5b506102ba60048036038101906102b5919061163a565b61098f565b6040516102c7919061161f565b60405180910390f35b3480156102dc57600080fd5b506102f760048036038101906102f2919061138e565b6109be565b60405161030794939291906116cf565b60405180910390f35b34801561031c57600080fd5b506103376004803603810190610332919061138e565b610ab3565b005b34801561034557600080fd5b5061034e610d4d565b60405161035b91906115b5565b60405180910390f35b34801561037057600080fd5b50610379610ddb565b604051610386919061133d565b60405180910390f35b34801561039b57600080fd5b506103a4610de1565b6040516103b191906118b7565b60405180910390f35b3480156103c657600080fd5b506103e160048036038101906103dc919061138e565b610f4d565b6040516103ee919061133d565b60405180910390f35b610411600480360381019061040c919061138e565b611028565b005b6001818154811061042357600080fd5b906000526020600020016000915054906101000a900473ffffffffffffffffffffffffffffffffffffffff1681565b6000600254905090565b600460003373ffffffffffffffffffffffffffffffffffffffff1673ffffffffffffffffffffffffffffffffffffffff16815260200190815260200160002060009054906101000a900460ff166104e8576040517f08c379a00000000000000000000000000000000000000000000000000000000081526004016104df90611925565b60405180910390fd5b600360405180608001604052808673ffffffffffffffffffffffffffffffffffffffff16815260200185815260200184848080601f016020809104026020016040519081016040528093929190818152602001838380828437600081840152601f19601f82011690508083019250505050505050815260200160001515815250908060018154018082558091505060019003906000526020600020906004020160009091909190915060008201518160000160006101000a81548173ffffffffffffffffffffffffffffffffffffffff021916908373ffffffffffffffffffffffffffffffffffffffff1602179055506020820151816001015560408201518160020190805190602001906105fe929190611281565b5060608201518160030160006101000a81548160ff021916908315150217905550505060016003805490506106339190611974565b7f08324b3d745b914e3abd4ffbfead91e3b78391a98c173202129215ab933adfbe60405160405180910390a250505050565b606060008054610674906119d7565b80601f01602080910402602001604051908101604052809291908181526020018280546106a0906119d7565b80156106ed5780601f106106c2576101008083540402835291602001916106ed565b820191906000526020600020905b8154815290600101906020018083116106d057829003601f168201915b5050505050905090565b600460003373ffffffffffffffffffffffffffffffffffffffff1673ffffffffffffffffffffffffffffffffffffffff16815260200190815260200160002060009054906101000a900460ff16610783576040517f08c379a000000000000000000000000000000000000000000000000000000000815260040161077a90611925565b60405180910390fd5b8060038054905081106107cb576040517f08c379a00000000000000000000000000000000000000000000000000000000081526004016107c290611a55565b60405180910390fd5b81600381815481106107e0576107df611a75565b5b906000526020600020906004020160030160009054906101000a900460ff161561083f576040517f08c379a000000000000000000000000000000000000000000000000000000000815260040161083690611af0565b60405180910390fd5b60016005600085815260200190815260200160002060003373ffffffffffffffffffffffffffffffffffffffff1673ffffffffffffffffffffffffffffffffffffffff16815260200190815260200160002060006101000a81548160ff02191690831515021790556108b057600080fd5b60006005600085815260200190815260200160002060003373ffffffffffffffffffffffffffffffffffffffff1673ffffffffffffffffffffffffffffffffffffffff16815260200190815260200160002060006101000a81548160ff021916908315150217905550823373ffffffffffffffffffffffffffffffffffffffff167fec9ab91322523c899ede7830ec9bfc992b5981cdcc27b91162fb23de5791117b60405160405180910390a3505050565b60046020528060005260406000206000915054906101000a900460ff1681565b6000600180549050905090565b60056020528160005260406000206020528060005260406000206000915091509054906101000a900460ff1681565b600381815481106109ce57600080fd5b90600052602060002090600402016000915090508060000160009054906101000a900473ffffffffffffffffffffffffffffffffffffffff1690806001015490806002018054610a1d906119d7565b80601f0160208091040260200160405190810160405280929190818152602001828054610a49906119d7565b8015610a965780601f10610a6b57610100808354040283529160200191610a96565b820191906000526020600020905b815481529060010190602001808311610a7957829003601f168201915b5050505050908060030160009054906101000a900460ff16905084565b600460003373ffffffffffffffffffffffffffffffffffffffff1673ffffffffffffffffffffffffffffffffffffffff16815260200190815260200160002060009054906101000a900460ff16610b3f576040517f08c379a0000000000000000000000000000000000000000000000000000000008152600401610b3690611925565b60405180910390fd5b806003805490508110610b87576040517f08c379a0000000000000000000000000000000000000000000000000000000008152600401610b7e90611a55565b60405180910390fd5b816005600082815260200190815260200160002060003373ffffffffffffffffffffffffffffffffffffffff1673ffffffffffffffffffffffffffffffffffffffff16815260200190815260200160002060009054906101000a900460ff1615610c26576040517f08c379a0000000000000000000000000000000000000000000000000000000008152600401610c1d90611b5c565b60405180910390fd5b8260038181548110610c3b57610c3a611a75565b5b906000526020600020906004020160030160009054906101000a900460ff1615610c9a576040517f08c379a0000000000000000000000000000000000000000000000000000000008152600401610c9190611af0565b60405180910390fd5b60016005600086815260200190815260200160002060003373ffffffffffffffffffffffffffffffffffffffff1673ffffffffffffffffffffffffffffffffffffffff16815260200190815260200160002060006101000a81548160ff021916908315150217905550833373ffffffffffffffffffffffffffffffffffffffff167f90ec57f18fa7b15c6b8d5e4d1deb90796c74b2ff23d4d0cecad0cb42a96b312860405160405180910390a350505050565b60008054610d5a906119d7565b80601f0160208091040260200160405190810160405280929190818152602001828054610d86906119d7565b8015610dd35780601f10610da857610100808354040283529160200191610dd3565b820191906000526020600020905b815481529060010190602001808311610db657829003601f168201915b505050505081565b60025481565b60606003805480602002602001604051908101604052809291908181526020016000905b82821015610f4457838290600052602060002090600402016040518060800160405290816000820160009054906101000a900473ffffffffffffffffffffffffffffffffffffffff1673ffffffffffffffffffffffffffffffffffffffff1673ffffffffffffffffffffffffffffffffffffffff16815260200160018201548152602001600282018054610e98906119d7565b80601f0160208091040260200160405190810160405280929190818152602001828054610ec4906119d7565b8015610f115780601f10610ee657610100808354040283529160200191610f11565b820191906000526020600020905b815481529060010190602001808311610ef457829003601f168201915b505050505081526020016003820160009054906101000a900460ff16151515158152505081526020019060010190610e05565b50505050905090565b6000805b6001805490508110156110225760056000848152602001908152602001600020600060018381548110610f8757610f86611a75565b5b9060005260206000200160009054906101000a900473ffffffffffffffffffffffffffffffffffffffff1673ffffffffffffffffffffffffffffffffffffffff1673ffffffffffffffffffffffffffffffffffffffff16815260200190815260200160002060009054906101000a900460ff161561100f5760018261100c9190611b7c565b91505b808061101a90611bd2565b915050610f51565b50919050565b806003805490508110611070576040517f08c379a000000000000000000000000000000000000000000000000000000000815260040161106790611a55565b60405180910390fd5b816003818154811061108557611084611a75565b5b906000526020600020906004020160030160009054906101000a900460ff16156110e4576040517f08c379a00000000000000000000000000000000000000000000000000000000081526004016110db90611af0565b60405180910390fd5b6002546110f084610f4d565b1015611131576040517f08c379a000000000000000000000000000000000000000000000000000000000815260040161112890611c67565b60405180910390fd5b60006003848154811061114757611146611a75565b5b9060005260206000209060040201905060018160030160006101000a81548160ff02191690831515021790555060008160000160009054906101000a900473ffffffffffffffffffffffffffffffffffffffff1673ffffffffffffffffffffffffffffffffffffffff168260010154836002016040516111c79190611d26565b60006040518083038185875af1925050503d8060008114611204576040519150601f19603f3d011682016040523d82523d6000602084013e611209565b606091505b505090508061124d576040517f08c379a000000000000000000000000000000000000000000000000000000000815260040161124490611d89565b60405180910390fd5b847fddb556f1d2c1ec821e910b019d3685b229db152a0ecd517ca7e24b8bd713928960405160405180910390a25050505050565b82805461128d906119d7565b90600052602060002090601f0160209004810192826112af57600085556112f6565b82601f106112c857805160ff19168380011785556112f6565b828001600101855582156112f6579182015b828111156112f55782518255916020019190600101906112da565b5b5090506113039190611307565b5090565b5b80821115611320576000816000905550600101611308565b5090565b6000819050919050565b61133781611324565b82525050565b6000602082019050611352600083018461132e565b92915050565b600080fd5b600080fd5b61136b81611324565b811461137657600080fd5b50565b60008135905061138881611362565b92915050565b6000602082840312156113a4576113a3611358565b5b60006113b284828501611379565b91505092915050565b600073ffffffffffffffffffffffffffffffffffffffff82169050919050565b60006113e6826113bb565b9050919050565b6113f6816113db565b82525050565b600060208201905061141160008301846113ed565b92915050565b611420816113db565b811461142b57600080fd5b50565b60008135905061143d81611417565b92915050565b600080fd5b600080fd5b600080fd5b60008083601f84011261146857611467611443565b5b8235905067ffffffffffffffff81111561148557611484611448565b5b6020830191508360018202830111156114a1576114a061144d565b5b9250929050565b600080600080606085870312156114c2576114c1611358565b5b60006114d08782880161142e565b94505060206114e187828801611379565b935050604085013567ffffffffffffffff8111156115025761150161135d565b5b61150e87828801611452565b925092505092959194509250565b600081519050919050565b600082825260208201905092915050565b60005b8381101561155657808201518184015260208101905061153b565b83811115611565576000848401525b50505050565b6000601f19601f8301169050919050565b60006115878261151c565b6115918185611527565b93506115a1818560208601611538565b6115aa8161156b565b840191505092915050565b600060208201905081810360008301526115cf818461157c565b905092915050565b6000602082840312156115ed576115ec611358565b5b60006115fb8482850161142e565b91505092915050565b60008115159050919050565b61161981611604565b82525050565b60006020820190506116346000830184611610565b92915050565b6000806040838503121561165157611650611358565b5b600061165f85828601611379565b92505060206116708582860161142e565b9150509250929050565b600081519050919050565b600082825260208201905092915050565b60006116a18261167a565b6116ab8185611685565b93506116bb818560208601611538565b6116c48161156b565b840191505092915050565b60006080820190506116e460008301876113ed565b6116f1602083018661132e565b81810360408301526117038185611696565b90506117126060830184611610565b95945050505050565b600081519050919050565b600082825260208201905092915050565b6000819050602082019050919050565b611750816113db565b82525050565b61175f81611324565b82525050565b600082825260208201905092915050565b60006117818261167a565b61178b8185611765565b935061179b818560208601611538565b6117a48161156b565b840191505092915050565b6117b881611604565b82525050565b60006080830160008301516117d66000860182611747565b5060208301516117e96020860182611756565b50604083015184820360408601526118018282611776565b915050606083015161181660608601826117af565b508091505092915050565b600061182d83836117be565b905092915050565b6000602082019050919050565b600061184d8261171b565b6118578185611726565b93508360208202850161186985611737565b8060005b858110156118a557848403895281516118868582611821565b945061189183611835565b925060208a0199505060018101905061186d565b50829750879550505050505092915050565b600060208201905081810360008301526118d18184611842565b905092915050565b7f6d73672e73656e646572206d757374206265206f776e65722061646472657373600082015250565b600061190f602083611527565b915061191a826118d9565b602082019050919050565b6000602082019050818103600083015261193e81611902565b9050919050565b7f4e487b7100000000000000000000000000000000000000000000000000000000600052601160045260246000fd5b600061197f82611324565b915061198a83611324565b92508282101561199d5761199c611945565b5b828203905092915050565b7f4e487b7100000000000000000000000000000000000000000000000000000000600052602260045260246000fd5b600060028204905060018216806119ef57607f821691505b60208210811415611a0357611a026119a8565b5b50919050565b7f747820646f6573206e6f74206578697374000000000000000000000000000000600082015250565b6000611a3f601183611527565b9150611a4a82611a09565b602082019050919050565b60006020820190508181036000830152611a6e81611a32565b9050919050565b7f4e487b7100000000000000000000000000000000000000000000000000000000600052603260045260246000fd5b7f7468697320747820616c72656164792065786563757465640000000000000000600082015250565b6000611ada601883611527565b9150611ae582611aa4565b602082019050919050565b60006020820190508181036000830152611b0981611acd565b9050919050565b7f747820616c726561647920617070726f76656400000000000000000000000000600082015250565b6000611b46601383611527565b9150611b5182611b10565b602082019050919050565b60006020820190508181036000830152611b7581611b39565b9050919050565b6000611b8782611324565b9150611b9283611324565b9250827fffffffffffffffffffffffffffffffffffffffffffffffffffffffffffffffff03821115611bc757611bc6611945565b5b828201905092915050565b6000611bdd82611324565b91507fffffffffffffffffffffffffffffffffffffffffffffffffffffffffffffffff821415611c1057611c0f611945565b5b600182019050919050565b7f617070726f76616c73203c207265717569726564000000000000000000000000600082015250565b6000611c51601483611527565b9150611c5c82611c1b565b602082019050919050565b60006020820190508181036000830152611c8081611c44565b9050919050565b600081905092915050565b60008190508160005260206000209050919050565b60008154611cb4816119d7565b611cbe8186611c87565b94506001821660008114611cd95760018114611cea57611d1d565b60ff19831686528186019350611d1d565b611cf385611c92565b60005b83811015611d1557815481890152600182019150602081019050611cf6565b838801955050505b50505092915050565b6000611d328284611ca7565b915081905092915050565b7f7478206661696c69640000000000000000000000000000000000000000000000600082015250565b6000611d73600983611527565b9150611d7e82611d3d565b602082019050919050565b60006020820190508181036000830152611da281611d66565b905091905056fea2646970667358221220cb2680a5e2f42360e30076fea581dcde027a94805901c91b50b3d42ecc822abb64736f6c63430008090033a26469706673582212201a7900af76038a153c8fa734832d43bf662471b59027bf2cf0a1d8811e9b63aa64736f6c63430008090033",
  "immutableReferences": {},
  "source": "// SPDX-License-Identifier: MIT\npragma solidity >=0.8.9;\n\nimport \"./MultiSigWallet.sol\";\nimport \"./../Token/MyToken.sol\";\n\n/**\n * WalletFactory\n */\ncontract WalletFactoryV2 {\n    // MultiSigWallet\n    MultiSigWallet[] public wallets;\n    // \n    uint256 constant maxLimit = 20;\n\n    // \n    event WalletCreated(\n        MultiSigWallet indexed wallet,\n        string name,\n        address[] owners,\n        uint256 required\n    );\n    event transferIDQ(address to, uint256 amount);\n\n    /**\n     * MultiSigWallet\n     */\n    function walletsCount() public view returns (uint256) {\n        return wallets.length;\n    }\n\n    /**\n     * MultiSigWallet\n     * @param _name \n     * @param _owners \n     * @param _required \n     */\n    function createWallet(\n        string memory _name,\n        address[] memory _owners,\n        uint256 _required\n    ) public {\n        // \n        MultiSigWallet wallet = new MultiSigWallet(_name, _owners, _required);\n        // \n        wallets.push(wallet);\n        // \n        emit WalletCreated(wallet, _name, _owners, _required);\n    }\n\n    /**\n     * \n     */\n    function getWallets(uint256 limit, uint256 offset)\n        public\n        view\n        returns (MultiSigWallet[] memory coll)\n    {\n        require(offset <= walletsCount(), \"offset out of bounds\");\n        // limit\n        uint256 size = walletsCount() - offset;\n        size = size < limit ? size : limit;\n        // sizemaxLimit\n        size = size < maxLimit ? size : maxLimit;\n        coll = new MultiSigWallet[](size);\n\n        for (uint256 i = 0; i < size; i++) {\n            coll[i] = wallets[offset + i];\n        }\n\n        return coll;\n    }\n\n    /**\n     * IDQToken \n     */\n    function transferIDQToken(address _tokenAddr, uint256 _amount) public {\n        // create IDQToken object\n        MyToken token = MyToken(_tokenAddr);\n        // check\n        require(\n            token.balanceOf(address(this)) >= _amount,\n            \"insufficient Tokens\"\n        );\n        // approve\n        token.approve(address(this), _amount);\n        // transfer\n        token.transfer(msg.sender, _amount);\n\n        emit transferIDQ(msg.sender, _amount);\n    }\n\n    /**\n     * \n     */\n    receive() external payable {}\n}\n",
  "sourcePath": "/Users/harukikondo/git/FlowRepo/backend/contracts/Wallet/WalletFactoryV2.sol",
  "compiler": {
    "name": "solc",
    "version": "0.8.9+commit.e5eed63a.Emscripten.clang"
  },
  "schemaVersion": "3.4.4",
  "updatedAt": "2022-10-24T12:43:32.172Z",
  "devdoc": {
    "kind": "dev",
    "methods": {
      "createWallet(string,address[],uint256)": {
        "params": {
          "_name": "",
          "_owners": "",
          "_required": ""
        }
      }
    },
    "version": 1
  },
  "userdoc": {
    "kind": "user",
    "methods": {
      "createWallet(string,address[],uint256)": {
        "notice": "MultiSigWallet"
      },
      "getWallets(uint256,uint256)": {
        "notice": ""
      },
      "transferIDQToken(address,uint256)": {
        "notice": "IDQToken "
      },
      "walletsCount()": {
        "notice": "MultiSigWallet"
      }
    },
    "notice": "WalletFactory",
    "version": 1
  }
}