{
  "contractName": "MyToken",
  "abi": [
    {
      "inputs": [
        {
          "internalType": "string",
          "name": "_name",
          "type": "string"
        },
        {
          "internalType": "string",
          "name": "_symbol",
          "type": "string"
        }
      ],
      "stateMutability": "nonpayable",
      "type": "constructor"
    },
    {
      "anonymous": false,
      "inputs": [
        {
          "indexed": true,
          "internalType": "address",
          "name": "owner",
          "type": "address"
        },
        {
          "indexed": true,
          "internalType": "address",
          "name": "spender",
          "type": "address"
        },
        {
          "indexed": false,
          "internalType": "uint256",
          "name": "value",
          "type": "uint256"
        }
      ],
      "name": "Approval",
      "type": "event"
    },
    {
      "anonymous": false,
      "inputs": [
        {
          "indexed": true,
          "internalType": "address",
          "name": "delegator",
          "type": "address"
        },
        {
          "indexed": true,
          "internalType": "address",
          "name": "fromDelegate",
          "type": "address"
        },
        {
          "indexed": true,
          "internalType": "address",
          "name": "toDelegate",
          "type": "address"
        }
      ],
      "name": "DelegateChanged",
      "type": "event"
    },
    {
      "anonymous": false,
      "inputs": [
        {
          "indexed": true,
          "internalType": "address",
          "name": "delegate",
          "type": "address"
        },
        {
          "indexed": false,
          "internalType": "uint256",
          "name": "previousBalance",
          "type": "uint256"
        },
        {
          "indexed": false,
          "internalType": "uint256",
          "name": "newBalance",
          "type": "uint256"
        }
      ],
      "name": "DelegateVotesChanged",
      "type": "event"
    },
    {
      "anonymous": false,
      "inputs": [
        {
          "indexed": true,
          "internalType": "address",
          "name": "previousOwner",
          "type": "address"
        },
        {
          "indexed": true,
          "internalType": "address",
          "name": "newOwner",
          "type": "address"
        }
      ],
      "name": "OwnershipTransferred",
      "type": "event"
    },
    {
      "anonymous": false,
      "inputs": [
        {
          "indexed": false,
          "internalType": "address",
          "name": "account",
          "type": "address"
        }
      ],
      "name": "Paused",
      "type": "event"
    },
    {
      "anonymous": false,
      "inputs": [
        {
          "indexed": true,
          "internalType": "address",
          "name": "from",
          "type": "address"
        },
        {
          "indexed": true,
          "internalType": "address",
          "name": "to",
          "type": "address"
        },
        {
          "indexed": false,
          "internalType": "uint256",
          "name": "value",
          "type": "uint256"
        }
      ],
      "name": "Transfer",
      "type": "event"
    },
    {
      "anonymous": false,
      "inputs": [
        {
          "indexed": false,
          "internalType": "address",
          "name": "account",
          "type": "address"
        }
      ],
      "name": "Unpaused",
      "type": "event"
    },
    {
      "inputs": [],
      "name": "DOMAIN_SEPARATOR",
      "outputs": [
        {
          "internalType": "bytes32",
          "name": "",
          "type": "bytes32"
        }
      ],
      "stateMutability": "view",
      "type": "function",
      "constant": true
    },
    {
      "inputs": [
        {
          "internalType": "address",
          "name": "owner",
          "type": "address"
        },
        {
          "internalType": "address",
          "name": "spender",
          "type": "address"
        }
      ],
      "name": "allowance",
      "outputs": [
        {
          "internalType": "uint256",
          "name": "",
          "type": "uint256"
        }
      ],
      "stateMutability": "view",
      "type": "function",
      "constant": true
    },
    {
      "inputs": [
        {
          "internalType": "address",
          "name": "spender",
          "type": "address"
        },
        {
          "internalType": "uint256",
          "name": "amount",
          "type": "uint256"
        }
      ],
      "name": "approve",
      "outputs": [
        {
          "internalType": "bool",
          "name": "",
          "type": "bool"
        }
      ],
      "stateMutability": "nonpayable",
      "type": "function"
    },
    {
      "inputs": [
        {
          "internalType": "address",
          "name": "account",
          "type": "address"
        }
      ],
      "name": "balanceOf",
      "outputs": [
        {
          "internalType": "uint256",
          "name": "",
          "type": "uint256"
        }
      ],
      "stateMutability": "view",
      "type": "function",
      "constant": true
    },
    {
      "inputs": [
        {
          "internalType": "uint256",
          "name": "amount",
          "type": "uint256"
        }
      ],
      "name": "burn",
      "outputs": [],
      "stateMutability": "nonpayable",
      "type": "function"
    },
    {
      "inputs": [
        {
          "internalType": "address",
          "name": "account",
          "type": "address"
        },
        {
          "internalType": "uint256",
          "name": "amount",
          "type": "uint256"
        }
      ],
      "name": "burnFrom",
      "outputs": [],
      "stateMutability": "nonpayable",
      "type": "function"
    },
    {
      "inputs": [
        {
          "internalType": "address",
          "name": "account",
          "type": "address"
        },
        {
          "internalType": "uint32",
          "name": "pos",
          "type": "uint32"
        }
      ],
      "name": "checkpoints",
      "outputs": [
        {
          "components": [
            {
              "internalType": "uint32",
              "name": "fromBlock",
              "type": "uint32"
            },
            {
              "internalType": "uint224",
              "name": "votes",
              "type": "uint224"
            }
          ],
          "internalType": "struct ERC20Votes.Checkpoint",
          "name": "",
          "type": "tuple"
        }
      ],
      "stateMutability": "view",
      "type": "function",
      "constant": true
    },
    {
      "inputs": [],
      "name": "decimals",
      "outputs": [
        {
          "internalType": "uint8",
          "name": "",
          "type": "uint8"
        }
      ],
      "stateMutability": "view",
      "type": "function",
      "constant": true
    },
    {
      "inputs": [
        {
          "internalType": "address",
          "name": "spender",
          "type": "address"
        },
        {
          "internalType": "uint256",
          "name": "subtractedValue",
          "type": "uint256"
        }
      ],
      "name": "decreaseAllowance",
      "outputs": [
        {
          "internalType": "bool",
          "name": "",
          "type": "bool"
        }
      ],
      "stateMutability": "nonpayable",
      "type": "function"
    },
    {
      "inputs": [
        {
          "internalType": "address",
          "name": "delegatee",
          "type": "address"
        }
      ],
      "name": "delegate",
      "outputs": [],
      "stateMutability": "nonpayable",
      "type": "function"
    },
    {
      "inputs": [
        {
          "internalType": "address",
          "name": "delegatee",
          "type": "address"
        },
        {
          "internalType": "uint256",
          "name": "nonce",
          "type": "uint256"
        },
        {
          "internalType": "uint256",
          "name": "expiry",
          "type": "uint256"
        },
        {
          "internalType": "uint8",
          "name": "v",
          "type": "uint8"
        },
        {
          "internalType": "bytes32",
          "name": "r",
          "type": "bytes32"
        },
        {
          "internalType": "bytes32",
          "name": "s",
          "type": "bytes32"
        }
      ],
      "name": "delegateBySig",
      "outputs": [],
      "stateMutability": "nonpayable",
      "type": "function"
    },
    {
      "inputs": [
        {
          "internalType": "address",
          "name": "account",
          "type": "address"
        }
      ],
      "name": "delegates",
      "outputs": [
        {
          "internalType": "address",
          "name": "",
          "type": "address"
        }
      ],
      "stateMutability": "view",
      "type": "function",
      "constant": true
    },
    {
      "inputs": [
        {
          "internalType": "uint256",
          "name": "blockNumber",
          "type": "uint256"
        }
      ],
      "name": "getPastTotalSupply",
      "outputs": [
        {
          "internalType": "uint256",
          "name": "",
          "type": "uint256"
        }
      ],
      "stateMutability": "view",
      "type": "function",
      "constant": true
    },
    {
      "inputs": [
        {
          "internalType": "address",
          "name": "account",
          "type": "address"
        },
        {
          "internalType": "uint256",
          "name": "blockNumber",
          "type": "uint256"
        }
      ],
      "name": "getPastVotes",
      "outputs": [
        {
          "internalType": "uint256",
          "name": "",
          "type": "uint256"
        }
      ],
      "stateMutability": "view",
      "type": "function",
      "constant": true
    },
    {
      "inputs": [
        {
          "internalType": "address",
          "name": "account",
          "type": "address"
        }
      ],
      "name": "getVotes",
      "outputs": [
        {
          "internalType": "uint256",
          "name": "",
          "type": "uint256"
        }
      ],
      "stateMutability": "view",
      "type": "function",
      "constant": true
    },
    {
      "inputs": [
        {
          "internalType": "address",
          "name": "spender",
          "type": "address"
        },
        {
          "internalType": "uint256",
          "name": "addedValue",
          "type": "uint256"
        }
      ],
      "name": "increaseAllowance",
      "outputs": [
        {
          "internalType": "bool",
          "name": "",
          "type": "bool"
        }
      ],
      "stateMutability": "nonpayable",
      "type": "function"
    },
    {
      "inputs": [],
      "name": "name",
      "outputs": [
        {
          "internalType": "string",
          "name": "",
          "type": "string"
        }
      ],
      "stateMutability": "view",
      "type": "function",
      "constant": true
    },
    {
      "inputs": [
        {
          "internalType": "address",
          "name": "owner",
          "type": "address"
        }
      ],
      "name": "nonces",
      "outputs": [
        {
          "internalType": "uint256",
          "name": "",
          "type": "uint256"
        }
      ],
      "stateMutability": "view",
      "type": "function",
      "constant": true
    },
    {
      "inputs": [
        {
          "internalType": "address",
          "name": "account",
          "type": "address"
        }
      ],
      "name": "numCheckpoints",
      "outputs": [
        {
          "internalType": "uint32",
          "name": "",
          "type": "uint32"
        }
      ],
      "stateMutability": "view",
      "type": "function",
      "constant": true
    },
    {
      "inputs": [],
      "name": "owner",
      "outputs": [
        {
          "internalType": "address",
          "name": "",
          "type": "address"
        }
      ],
      "stateMutability": "view",
      "type": "function",
      "constant": true
    },
    {
      "inputs": [],
      "name": "paused",
      "outputs": [
        {
          "internalType": "bool",
          "name": "",
          "type": "bool"
        }
      ],
      "stateMutability": "view",
      "type": "function",
      "constant": true
    },
    {
      "inputs": [
        {
          "internalType": "address",
          "name": "owner",
          "type": "address"
        },
        {
          "internalType": "address",
          "name": "spender",
          "type": "address"
        },
        {
          "internalType": "uint256",
          "name": "value",
          "type": "uint256"
        },
        {
          "internalType": "uint256",
          "name": "deadline",
          "type": "uint256"
        },
        {
          "internalType": "uint8",
          "name": "v",
          "type": "uint8"
        },
        {
          "internalType": "bytes32",
          "name": "r",
          "type": "bytes32"
        },
        {
          "internalType": "bytes32",
          "name": "s",
          "type": "bytes32"
        }
      ],
      "name": "permit",
      "outputs": [],
      "stateMutability": "nonpayable",
      "type": "function"
    },
    {
      "inputs": [],
      "name": "renounceOwnership",
      "outputs": [],
      "stateMutability": "nonpayable",
      "type": "function"
    },
    {
      "inputs": [],
      "name": "symbol",
      "outputs": [
        {
          "internalType": "string",
          "name": "",
          "type": "string"
        }
      ],
      "stateMutability": "view",
      "type": "function",
      "constant": true
    },
    {
      "inputs": [],
      "name": "totalSupply",
      "outputs": [
        {
          "internalType": "uint256",
          "name": "",
          "type": "uint256"
        }
      ],
      "stateMutability": "view",
      "type": "function",
      "constant": true
    },
    {
      "inputs": [
        {
          "internalType": "address",
          "name": "to",
          "type": "address"
        },
        {
          "internalType": "uint256",
          "name": "amount",
          "type": "uint256"
        }
      ],
      "name": "transfer",
      "outputs": [
        {
          "internalType": "bool",
          "name": "",
          "type": "bool"
        }
      ],
      "stateMutability": "nonpayable",
      "type": "function"
    },
    {
      "inputs": [
        {
          "internalType": "address",
          "name": "from",
          "type": "address"
        },
        {
          "internalType": "address",
          "name": "to",
          "type": "address"
        },
        {
          "internalType": "uint256",
          "name": "amount",
          "type": "uint256"
        }
      ],
      "name": "transferFrom",
      "outputs": [
        {
          "internalType": "bool",
          "name": "",
          "type": "bool"
        }
      ],
      "stateMutability": "nonpayable",
      "type": "function"
    },
    {
      "inputs": [
        {
          "internalType": "address",
          "name": "newOwner",
          "type": "address"
        }
      ],
      "name": "transferOwnership",
      "outputs": [],
      "stateMutability": "nonpayable",
      "type": "function"
    },
    {
      "inputs": [],
      "name": "pause",
      "outputs": [],
      "stateMutability": "nonpayable",
      "type": "function"
    },
    {
      "inputs": [],
      "name": "unpause",
      "outputs": [],
      "stateMutability": "nonpayable",
      "type": "function"
    },
    {
      "inputs": [
        {
          "internalType": "address",
          "name": "to",
          "type": "address"
        },
        {
          "internalType": "uint256",
          "name": "amount",
          "type": "uint256"
        }
      ],
      "name": "mint",
      "outputs": [],
      "stateMutability": "nonpayable",
      "type": "function"
    },
    {
      "inputs": [
        {
          "internalType": "address",
          "name": "to",
          "type": "address"
        },
        {
          "internalType": "uint256",
          "name": "amount",
          "type": "uint256"
        }
      ],
      "name": "burnToken",
      "outputs": [],
      "stateMutability": "nonpayable",
      "type": "function"
    }
  ],
  "bytecode": "0x6101406040523480156200001257600080fd5b506040516200496b3803806200496b8339818101604052810190620000389190620003fd565b81806040518060400160405280600181526020017f3100000000000000000000000000000000000000000000000000000000000000815250848481600390805190602001906200008a929190620002db565b508060049080519060200190620000a3929190620002db565b5050506000600560006101000a81548160ff021916908315150217905550620000e1620000d5620001d160201b60201c565b620001d960201b60201c565b60008280519060200120905060008280519060200120905060007f8b73c3c69bb8fe3d512ecc4cf759cc79239f7b179b0ffacaa9a75d522b39400f90508260e081815250508161010081815250504660a081815250506200014a8184846200029f60201b60201c565b608081815250503073ffffffffffffffffffffffffffffffffffffffff1660c08173ffffffffffffffffffffffffffffffffffffffff1660601b8152505080610120818152505050505050505081600b9080519060200190620001af929190620002db565b5080600c9080519060200190620001c8929190620002db565b50505062000679565b600033905090565b6000600560019054906101000a900473ffffffffffffffffffffffffffffffffffffffff16905081600560016101000a81548173ffffffffffffffffffffffffffffffffffffffff021916908373ffffffffffffffffffffffffffffffffffffffff1602179055508173ffffffffffffffffffffffffffffffffffffffff168173ffffffffffffffffffffffffffffffffffffffff167f8be0079c531659141344cd1fd0a4f28419497f9722a3daafe3b4186f6b6457e060405160405180910390a35050565b60008383834630604051602001620002bc959493929190620004a3565b6040516020818303038152906040528051906020012090509392505050565b828054620002e990620005e5565b90600052602060002090601f0160209004810192826200030d576000855562000359565b82601f106200032857805160ff191683800117855562000359565b8280016001018555821562000359579182015b82811115620003585782518255916020019190600101906200033b565b5b5090506200036891906200036c565b5090565b5b80821115620003875760008160009055506001016200036d565b5090565b6000620003a26200039c8462000534565b62000500565b905082815260208101848484011115620003bb57600080fd5b620003c8848285620005af565b509392505050565b600082601f830112620003e257600080fd5b8151620003f48482602086016200038b565b91505092915050565b600080604083850312156200041157600080fd5b600083015167ffffffffffffffff8111156200042c57600080fd5b6200043a85828601620003d0565b925050602083015167ffffffffffffffff8111156200045857600080fd5b6200046685828601620003d0565b9150509250929050565b6200047b8162000567565b82525050565b6200048c816200057b565b82525050565b6200049d81620005a5565b82525050565b600060a082019050620004ba600083018862000481565b620004c9602083018762000481565b620004d8604083018662000481565b620004e7606083018562000492565b620004f6608083018462000470565b9695505050505050565b6000604051905081810181811067ffffffffffffffff821117156200052a57620005296200064a565b5b8060405250919050565b600067ffffffffffffffff8211156200055257620005516200064a565b5b601f19601f8301169050602081019050919050565b6000620005748262000585565b9050919050565b6000819050919050565b600073ffffffffffffffffffffffffffffffffffffffff82169050919050565b6000819050919050565b60005b83811015620005cf578082015181840152602081019050620005b2565b83811115620005df576000848401525b50505050565b60006002820490506001821680620005fe57607f821691505b602082108114156200061557620006146200061b565b5b50919050565b7f4e487b7100000000000000000000000000000000000000000000000000000000600052602260045260246000fd5b7f4e487b7100000000000000000000000000000000000000000000000000000000600052604160045260246000fd5b60805160a05160c05160601c60e051610100516101205161429f620006cc600039600061174601526000611788015260006117670152600061169c015260006116f20152600061171b015261429f6000f3fe608060405234801561001057600080fd5b50600436106101f05760003560e01c8063715018a61161010f578063a457c2d7116100a2578063d505accf11610071578063d505accf146105cd578063dd62ed3e146105e9578063f1127ed814610619578063f2fde38b14610649576101f0565b8063a457c2d714610535578063a9059cbb14610565578063c3cda52014610595578063d1df306c146105b1576101f0565b80638da5cb5b116100de5780638da5cb5b146104995780638e539e8c146104b757806395d89b41146104e75780639ab24eb014610505576101f0565b8063715018a61461043957806379cc6790146104435780637ecebe001461045f5780638456cb591461048f576101f0565b80633f4ba83a116101875780635c19a95c116101565780635c19a95c1461039f5780635c975abb146103bb5780636fcfff45146103d957806370a0823114610409576101f0565b80633f4ba83a1461032d57806340c10f191461033757806342966c6814610353578063587cde1e1461036f576101f0565b8063313ce567116101c3578063313ce567146102915780633644e515146102af57806339509351146102cd5780633a46b1a8146102fd576101f0565b806306fdde03146101f5578063095ea7b31461021357806318160ddd1461024357806323b872dd14610261575b600080fd5b6101fd610665565b60405161020a9190613b79565b60405180910390f35b61022d60048036038101906102289190612ebe565b6106f7565b60405161023a9190613a05565b60405180910390f35b61024b61071a565b6040516102589190613ef6565b60405180910390f35b61027b60048036038101906102769190612dd1565b610724565b6040516102889190613a05565b60405180910390f35b610299610753565b6040516102a69190613f55565b60405180910390f35b6102b761075c565b6040516102c49190613a20565b60405180910390f35b6102e760048036038101906102e29190612ebe565b61076b565b6040516102f49190613a05565b60405180910390f35b61031760048036038101906103129190612ebe565b6107a2565b6040516103249190613ef6565b60405180910390f35b610335610836565b005b610351600480360381019061034c9190612ebe565b610848565b005b61036d60048036038101906103689190612fbf565b61085e565b005b61038960048036038101906103849190612d6c565b610872565b60405161039691906139ea565b60405180910390f35b6103b960048036038101906103b49190612d6c565b6108db565b005b6103c36108ef565b6040516103d09190613a05565b60405180910390f35b6103f360048036038101906103ee9190612d6c565b610906565b6040516104009190613f3a565b60405180910390f35b610423600480360381019061041e9190612d6c565b61095a565b6040516104309190613ef6565b60405180910390f35b6104416109a2565b005b61045d60048036038101906104589190612ebe565b6109b6565b005b61047960048036038101906104749190612d6c565b6109d6565b6040516104869190613ef6565b60405180910390f35b610497610a26565b005b6104a1610a38565b6040516104ae91906139ea565b60405180910390f35b6104d160048036038101906104cc9190612fbf565b610a62565b6040516104de9190613ef6565b60405180910390f35b6104ef610ab8565b6040516104fc9190613b79565b60405180910390f35b61051f600480360381019061051a9190612d6c565b610b4a565b60405161052c9190613ef6565b60405180910390f35b61054f600480360381019061054a9190612ebe565b610c81565b60405161055c9190613a05565b60405180910390f35b61057f600480360381019061057a9190612ebe565b610cf8565b60405161058c9190613a05565b60405180910390f35b6105af60048036038101906105aa9190612efa565b610d1b565b005b6105cb60048036038101906105c69190612ebe565b610e1f565b005b6105e760048036038101906105e29190612e20565b610e35565b005b61060360048036038101906105fe9190612d95565b610f77565b6040516106109190613ef6565b60405180910390f35b610633600480360381019061062e9190612f83565b610ffe565b6040516106409190613edb565b60405180910390f35b610663600480360381019061065e9190612d6c565b611134565b005b6060600380546106749061411c565b80601f01602080910402602001604051908101604052809291908181526020018280546106a09061411c565b80156106ed5780601f106106c2576101008083540402835291602001916106ed565b820191906000526020600020905b8154815290600101906020018083116106d057829003601f168201915b5050505050905090565b6000806107026111b8565b905061070f8185856111c0565b600191505092915050565b6000600254905090565b60008061072f6111b8565b905061073c85828561138b565b610747858585611417565b60019150509392505050565b60006012905090565b6000610766611698565b905090565b6000806107766111b8565b90506107978185856107888589610f77565b6107929190613f97565b6111c0565b600191505092915050565b60004382106107e6576040517f08c379a00000000000000000000000000000000000000000000000000000000081526004016107dd90613bdb565b60405180910390fd5b61082e600960008573ffffffffffffffffffffffffffffffffffffffff1673ffffffffffffffffffffffffffffffffffffffff168152602001908152602001600020836117b2565b905092915050565b61083e61190a565b610846611988565b565b61085061190a565b61085a82826119eb565b5050565b61086f6108696111b8565b826119f9565b50565b6000600860008373ffffffffffffffffffffffffffffffffffffffff1673ffffffffffffffffffffffffffffffffffffffff16815260200190815260200160002060009054906101000a900473ffffffffffffffffffffffffffffffffffffffff169050919050565b6108ec6108e66111b8565b82611a07565b50565b6000600560009054906101000a900460ff16905090565b6000610953600960008473ffffffffffffffffffffffffffffffffffffffff1673ffffffffffffffffffffffffffffffffffffffff16815260200190815260200160002080549050611b21565b9050919050565b60008060008373ffffffffffffffffffffffffffffffffffffffff1673ffffffffffffffffffffffffffffffffffffffff168152602001908152602001600020549050919050565b6109aa61190a565b6109b46000611b74565b565b6109c8826109c26111b8565b8361138b565b6109d282826119f9565b5050565b6000610a1f600660008473ffffffffffffffffffffffffffffffffffffffff1673ffffffffffffffffffffffffffffffffffffffff168152602001908152602001600020611c3a565b9050919050565b610a2e61190a565b610a36611c48565b565b6000600560019054906101000a900473ffffffffffffffffffffffffffffffffffffffff16905090565b6000438210610aa6576040517f08c379a0000000000000000000000000000000000000000000000000000000008152600401610a9d90613bdb565b60405180910390fd5b610ab1600a836117b2565b9050919050565b606060048054610ac79061411c565b80601f0160208091040260200160405190810160405280929190818152602001828054610af39061411c565b8015610b405780601f10610b1557610100808354040283529160200191610b40565b820191906000526020600020905b815481529060010190602001808311610b2357829003601f168201915b5050505050905090565b600080600960008473ffffffffffffffffffffffffffffffffffffffff1673ffffffffffffffffffffffffffffffffffffffff16815260200190815260200160002080549050905060008114610c5857600960008473ffffffffffffffffffffffffffffffffffffffff1673ffffffffffffffffffffffffffffffffffffffff168152602001908152602001600020600182610be6919061401e565b81548110610c1d577f4e487b7100000000000000000000000000000000000000000000000000000000600052603260045260246000fd5b9060005260206000200160000160049054906101000a90047bffffffffffffffffffffffffffffffffffffffffffffffffffffffff16610c5b565b60005b7bffffffffffffffffffffffffffffffffffffffffffffffffffffffff16915050919050565b600080610c8c6111b8565b90506000610c9a8286610f77565b905083811015610cdf576040517f08c379a0000000000000000000000000000000000000000000000000000000008152600401610cd690613e9b565b60405180910390fd5b610cec82868684036111c0565b60019250505092915050565b600080610d036111b8565b9050610d10818585611417565b600191505092915050565b83421115610d5e576040517f08c379a0000000000000000000000000000000000000000000000000000000008152600401610d5590613c1b565b60405180910390fd5b6000610dc0610db87fe48329057bfd03d55e49b547132e39cffd9c1820ad7b9d4c5307691425d15adf898989604051602001610d9d9493929190613a9c565b60405160208183030381529060405280519060200120611cab565b858585611cc5565b9050610dcb81611cf0565b8614610e0c576040517f08c379a0000000000000000000000000000000000000000000000000000000008152600401610e0390613c7b565b60405180910390fd5b610e168188611a07565b50505050505050565b610e2761190a565b610e3182826119f9565b5050565b83421115610e78576040517f08c379a0000000000000000000000000000000000000000000000000000000008152600401610e6f90613cfb565b60405180910390fd5b60007f6e71edae12b1b97f4d1f60370fef10105fa2faae0126114a169c64845d6126c9888888610ea78c611cf0565b89604051602001610ebd96959493929190613a3b565b6040516020818303038152906040528051906020012090506000610ee082611cab565b90506000610ef082878787611cc5565b90508973ffffffffffffffffffffffffffffffffffffffff168173ffffffffffffffffffffffffffffffffffffffff1614610f60576040517f08c379a0000000000000000000000000000000000000000000000000000000008152600401610f5790613d9b565b60405180910390fd5b610f6b8a8a8a6111c0565b50505050505050505050565b6000600160008473ffffffffffffffffffffffffffffffffffffffff1673ffffffffffffffffffffffffffffffffffffffff16815260200190815260200160002060008373ffffffffffffffffffffffffffffffffffffffff1673ffffffffffffffffffffffffffffffffffffffff16815260200190815260200160002054905092915050565b611006612cc5565b600960008473ffffffffffffffffffffffffffffffffffffffff1673ffffffffffffffffffffffffffffffffffffffff1681526020019081526020016000208263ffffffff1681548110611083577f4e487b7100000000000000000000000000000000000000000000000000000000600052603260045260246000fd5b906000526020600020016040518060400160405290816000820160009054906101000a900463ffffffff1663ffffffff1663ffffffff1681526020016000820160049054906101000a90047bffffffffffffffffffffffffffffffffffffffffffffffffffffffff167bffffffffffffffffffffffffffffffffffffffffffffffffffffffff167bffffffffffffffffffffffffffffffffffffffffffffffffffffffff1681525050905092915050565b61113c61190a565b600073ffffffffffffffffffffffffffffffffffffffff168173ffffffffffffffffffffffffffffffffffffffff1614156111ac576040517f08c379a00000000000000000000000000000000000000000000000000000000081526004016111a390613c9b565b60405180910390fd5b6111b581611b74565b50565b600033905090565b600073ffffffffffffffffffffffffffffffffffffffff168373ffffffffffffffffffffffffffffffffffffffff161415611230576040517f08c379a000000000000000000000000000000000000000000000000000000000815260040161122790613e7b565b60405180910390fd5b600073ffffffffffffffffffffffffffffffffffffffff168273ffffffffffffffffffffffffffffffffffffffff1614156112a0576040517f08c379a000000000000000000000000000000000000000000000000000000000815260040161129790613cbb565b60405180910390fd5b80600160008573ffffffffffffffffffffffffffffffffffffffff1673ffffffffffffffffffffffffffffffffffffffff16815260200190815260200160002060008473ffffffffffffffffffffffffffffffffffffffff1673ffffffffffffffffffffffffffffffffffffffff168152602001908152602001600020819055508173ffffffffffffffffffffffffffffffffffffffff168373ffffffffffffffffffffffffffffffffffffffff167f8c5be1e5ebec7d5bd14f71427d1e84f3dd0314c0f7b2291e5b200ac8c7c3b9258360405161137e9190613ef6565b60405180910390a3505050565b60006113978484610f77565b90507fffffffffffffffffffffffffffffffffffffffffffffffffffffffffffffffff81146114115781811015611403576040517f08c379a00000000000000000000000000000000000000000000000000000000081526004016113fa90613cdb565b60405180910390fd5b61141084848484036111c0565b5b50505050565b600073ffffffffffffffffffffffffffffffffffffffff168373ffffffffffffffffffffffffffffffffffffffff161415611487576040517f08c379a000000000000000000000000000000000000000000000000000000000815260040161147e90613e3b565b60405180910390fd5b600073ffffffffffffffffffffffffffffffffffffffff168273ffffffffffffffffffffffffffffffffffffffff1614156114f7576040517f08c379a00000000000000000000000000000000000000000000000000000000081526004016114ee90613bbb565b60405180910390fd5b611502838383611d4e565b60008060008573ffffffffffffffffffffffffffffffffffffffff1673ffffffffffffffffffffffffffffffffffffffff16815260200190815260200160002054905081811015611588576040517f08c379a000000000000000000000000000000000000000000000000000000000815260040161157f90613d1b565b60405180910390fd5b8181036000808673ffffffffffffffffffffffffffffffffffffffff1673ffffffffffffffffffffffffffffffffffffffff16815260200190815260200160002081905550816000808573ffffffffffffffffffffffffffffffffffffffff1673ffffffffffffffffffffffffffffffffffffffff168152602001908152602001600020600082825461161b9190613f97565b925050819055508273ffffffffffffffffffffffffffffffffffffffff168473ffffffffffffffffffffffffffffffffffffffff167fddf252ad1be2c89b69c2b068fc378daa952ba7f163c4a11628f55a4df523b3ef8460405161167f9190613ef6565b60405180910390a3611692848484611d66565b50505050565b60007f000000000000000000000000000000000000000000000000000000000000000073ffffffffffffffffffffffffffffffffffffffff163073ffffffffffffffffffffffffffffffffffffffff1614801561171457507f000000000000000000000000000000000000000000000000000000000000000046145b15611741577f000000000000000000000000000000000000000000000000000000000000000090506117af565b6117ac7f00000000000000000000000000000000000000000000000000000000000000007f00000000000000000000000000000000000000000000000000000000000000007f0000000000000000000000000000000000000000000000000000000000000000611d76565b90505b90565b6000808380549050905060005b818110156118575760006117d38284611db0565b90508486828154811061180f577f4e487b7100000000000000000000000000000000000000000000000000000000600052603260045260246000fd5b9060005260206000200160000160009054906101000a900463ffffffff1663ffffffff16111561184157809250611851565b60018161184e9190613f97565b91505b506117bf565b600082146118df578460018361186d919061401e565b815481106118a4577f4e487b7100000000000000000000000000000000000000000000000000000000600052603260045260246000fd5b9060005260206000200160000160049054906101000a90047bffffffffffffffffffffffffffffffffffffffffffffffffffffffff166118e2565b60005b7bffffffffffffffffffffffffffffffffffffffffffffffffffffffff169250505092915050565b6119126111b8565b73ffffffffffffffffffffffffffffffffffffffff16611930610a38565b73ffffffffffffffffffffffffffffffffffffffff1614611986576040517f08c379a000000000000000000000000000000000000000000000000000000000815260040161197d90613ddb565b60405180910390fd5b565b611990611dd6565b6000600560006101000a81548160ff0219169083151502179055507f5db9ee0a495bf2e6ff9c91a7834c1ba4fdd244a5e8aa4e537bd38aeae4b073aa6119d46111b8565b6040516119e191906139ea565b60405180910390a1565b6119f58282611e1f565b5050565b611a038282611eac565b5050565b6000611a1283610872565b90506000611a1f8461095a565b905082600860008673ffffffffffffffffffffffffffffffffffffffff1673ffffffffffffffffffffffffffffffffffffffff16815260200190815260200160002060006101000a81548173ffffffffffffffffffffffffffffffffffffffff021916908373ffffffffffffffffffffffffffffffffffffffff1602179055508273ffffffffffffffffffffffffffffffffffffffff168273ffffffffffffffffffffffffffffffffffffffff168573ffffffffffffffffffffffffffffffffffffffff167f3134e8a2e6d97e929a7e54011ea5485d7d196dd5f0ba4d4ef95803e8e3fc257f60405160405180910390a4611b1b828483611eca565b50505050565b600063ffffffff8016821115611b6c576040517f08c379a0000000000000000000000000000000000000000000000000000000008152600401611b6390613e5b565b60405180910390fd5b819050919050565b6000600560019054906101000a900473ffffffffffffffffffffffffffffffffffffffff16905081600560016101000a81548173ffffffffffffffffffffffffffffffffffffffff021916908373ffffffffffffffffffffffffffffffffffffffff1602179055508173ffffffffffffffffffffffffffffffffffffffff168173ffffffffffffffffffffffffffffffffffffffff167f8be0079c531659141344cd1fd0a4f28419497f9722a3daafe3b4186f6b6457e060405160405180910390a35050565b600081600001549050919050565b611c506120c3565b6001600560006101000a81548160ff0219169083151502179055507f62e78cea01bee320cd4e420270b5ea74000d11b0c9f74754ebdbfc544b05a258611c946111b8565b604051611ca191906139ea565b60405180910390a1565b6000611cbe611cb8611698565b8361210d565b9050919050565b6000806000611cd687878787612140565b91509150611ce38161224d565b8192505050949350505050565b600080600660008473ffffffffffffffffffffffffffffffffffffffff1673ffffffffffffffffffffffffffffffffffffffff1681526020019081526020016000209050611d3d81611c3a565b9150611d488161259e565b50919050565b611d566120c3565b611d618383836125b4565b505050565b611d718383836125b9565b505050565b60008383834630604051602001611d91959493929190613ae1565b6040516020818303038152906040528051906020012090509392505050565b60006002828418611dc19190613fed565b828416611dce9190613f97565b905092915050565b611dde6108ef565b611e1d576040517f08c379a0000000000000000000000000000000000000000000000000000000008152600401611e1490613bfb565b60405180910390fd5b565b611e2982826125e4565b611e31612744565b7bffffffffffffffffffffffffffffffffffffffffffffffffffffffff16611e5761071a565b1115611e98576040517f08c379a0000000000000000000000000000000000000000000000000000000008152600401611e8f90613dbb565b60405180910390fd5b611ea6600a6127688361277e565b50505050565b611eb68282612a68565b611ec4600a612c3f8361277e565b50505050565b8173ffffffffffffffffffffffffffffffffffffffff168373ffffffffffffffffffffffffffffffffffffffff1614158015611f065750600081115b156120be57600073ffffffffffffffffffffffffffffffffffffffff168373ffffffffffffffffffffffffffffffffffffffff1614611fe457600080611f8d600960008773ffffffffffffffffffffffffffffffffffffffff1673ffffffffffffffffffffffffffffffffffffffff168152602001908152602001600020612c3f8561277e565b915091508473ffffffffffffffffffffffffffffffffffffffff167fdec2bacdd2f05b59de34da9b523dff8be42e5e38e818c82fdb0bae774387a7248383604051611fd9929190613f11565b60405180910390a250505b600073ffffffffffffffffffffffffffffffffffffffff168273ffffffffffffffffffffffffffffffffffffffff16146120bd57600080612066600960008673ffffffffffffffffffffffffffffffffffffffff1673ffffffffffffffffffffffffffffffffffffffff1681526020019081526020016000206127688561277e565b915091508373ffffffffffffffffffffffffffffffffffffffff167fdec2bacdd2f05b59de34da9b523dff8be42e5e38e818c82fdb0bae774387a72483836040516120b2929190613f11565b60405180910390a250505b5b505050565b6120cb6108ef565b1561210b576040517f08c379a000000000000000000000000000000000000000000000000000000000815260040161210290613d5b565b60405180910390fd5b565b600082826040516020016121229291906139b3565b60405160208183030381529060405280519060200120905092915050565b6000807f7fffffffffffffffffffffffffffffff5d576e7357a4501ddfe92f46681b20a08360001c111561217b576000600391509150612244565b601b8560ff16141580156121935750601c8560ff1614155b156121a5576000600491509150612244565b6000600187878787604051600081526020016040526040516121ca9493929190613b34565b6020604051602081039080840390855afa1580156121ec573d6000803e3d6000fd5b505050602060405103519050600073ffffffffffffffffffffffffffffffffffffffff168173ffffffffffffffffffffffffffffffffffffffff16141561223b57600060019250925050612244565b80600092509250505b94509492505050565b60006004811115612287577f4e487b7100000000000000000000000000000000000000000000000000000000600052602160045260246000fd5b8160048111156122c0577f4e487b7100000000000000000000000000000000000000000000000000000000600052602160045260246000fd5b14156122cb5761259b565b60016004811115612305577f4e487b7100000000000000000000000000000000000000000000000000000000600052602160045260246000fd5b81600481111561233e577f4e487b7100000000000000000000000000000000000000000000000000000000600052602160045260246000fd5b141561237f576040517f08c379a000000000000000000000000000000000000000000000000000000000815260040161237690613b9b565b60405180910390fd5b600260048111156123b9577f4e487b7100000000000000000000000000000000000000000000000000000000600052602160045260246000fd5b8160048111156123f2577f4e487b7100000000000000000000000000000000000000000000000000000000600052602160045260246000fd5b1415612433576040517f08c379a000000000000000000000000000000000000000000000000000000000815260040161242a90613c5b565b60405180910390fd5b6003600481111561246d577f4e487b7100000000000000000000000000000000000000000000000000000000600052602160045260246000fd5b8160048111156124a6577f4e487b7100000000000000000000000000000000000000000000000000000000600052602160045260246000fd5b14156124e7576040517f08c379a00000000000000000000000000000000000000000000000000000000081526004016124de90613d3b565b60405180910390fd5b600480811115612520577f4e487b7100000000000000000000000000000000000000000000000000000000600052602160045260246000fd5b816004811115612559577f4e487b7100000000000000000000000000000000000000000000000000000000600052602160045260246000fd5b141561259a576040517f08c379a000000000000000000000000000000000000000000000000000000000815260040161259190613d7b565b60405180910390fd5b5b50565b6001816000016000828254019250508190555050565b505050565b6125c4838383612c55565b6125df6125d084610872565b6125d984610872565b83611eca565b505050565b600073ffffffffffffffffffffffffffffffffffffffff168273ffffffffffffffffffffffffffffffffffffffff161415612654576040517f08c379a000000000000000000000000000000000000000000000000000000000815260040161264b90613ebb565b60405180910390fd5b61266060008383611d4e565b80600260008282546126729190613f97565b92505081905550806000808473ffffffffffffffffffffffffffffffffffffffff1673ffffffffffffffffffffffffffffffffffffffff16815260200190815260200160002060008282546126c79190613f97565b925050819055508173ffffffffffffffffffffffffffffffffffffffff16600073ffffffffffffffffffffffffffffffffffffffff167fddf252ad1be2c89b69c2b068fc378daa952ba7f163c4a11628f55a4df523b3ef8360405161272c9190613ef6565b60405180910390a361274060008383611d66565b5050565b60007bffffffffffffffffffffffffffffffffffffffffffffffffffffffff905090565b600081836127769190613f97565b905092915050565b6000806000858054905090506000811461281257856001826127a0919061401e565b815481106127d7577f4e487b7100000000000000000000000000000000000000000000000000000000600052603260045260246000fd5b9060005260206000200160000160049054906101000a90047bffffffffffffffffffffffffffffffffffffffffffffffffffffffff16612815565b60005b7bffffffffffffffffffffffffffffffffffffffffffffffffffffffff16925061284383858763ffffffff16565b91506000811180156128bc5750438660018361285f919061401e565b81548110612896577f4e487b7100000000000000000000000000000000000000000000000000000000600052603260045260246000fd5b9060005260206000200160000160009054906101000a900463ffffffff1663ffffffff16145b1561296f576128ca82612c5a565b866001836128d8919061401e565b8154811061290f577f4e487b7100000000000000000000000000000000000000000000000000000000600052603260045260246000fd5b9060005260206000200160000160046101000a8154817bffffffffffffffffffffffffffffffffffffffffffffffffffffffff02191690837bffffffffffffffffffffffffffffffffffffffffffffffffffffffff160217905550612a5f565b85604051806040016040528061298443611b21565b63ffffffff16815260200161299885612c5a565b7bffffffffffffffffffffffffffffffffffffffffffffffffffffffff168152509080600181540180825580915050600190039060005260206000200160009091909190915060008201518160000160006101000a81548163ffffffff021916908363ffffffff16021790555060208201518160000160046101000a8154817bffffffffffffffffffffffffffffffffffffffffffffffffffffffff02191690837bffffffffffffffffffffffffffffffffffffffffffffffffffffffff16021790555050505b50935093915050565b600073ffffffffffffffffffffffffffffffffffffffff168273ffffffffffffffffffffffffffffffffffffffff161415612ad8576040517f08c379a0000000000000000000000000000000000000000000000000000000008152600401612acf90613e1b565b60405180910390fd5b612ae482600083611d4e565b60008060008473ffffffffffffffffffffffffffffffffffffffff1673ffffffffffffffffffffffffffffffffffffffff16815260200190815260200160002054905081811015612b6a576040517f08c379a0000000000000000000000000000000000000000000000000000000008152600401612b6190613c3b565b60405180910390fd5b8181036000808573ffffffffffffffffffffffffffffffffffffffff1673ffffffffffffffffffffffffffffffffffffffff168152602001908152602001600020819055508160026000828254612bc1919061401e565b92505081905550600073ffffffffffffffffffffffffffffffffffffffff168373ffffffffffffffffffffffffffffffffffffffff167fddf252ad1be2c89b69c2b068fc378daa952ba7f163c4a11628f55a4df523b3ef84604051612c269190613ef6565b60405180910390a3612c3a83600084611d66565b505050565b60008183612c4d919061401e565b905092915050565b505050565b60007bffffffffffffffffffffffffffffffffffffffffffffffffffffffff8016821115612cbd576040517f08c379a0000000000000000000000000000000000000000000000000000000008152600401612cb490613dfb565b60405180910390fd5b819050919050565b6040518060400160405280600063ffffffff16815260200160007bffffffffffffffffffffffffffffffffffffffffffffffffffffffff1681525090565b600081359050612d12816141f6565b92915050565b600081359050612d278161420d565b92915050565b600081359050612d3c81614224565b92915050565b600081359050612d518161423b565b92915050565b600081359050612d6681614252565b92915050565b600060208284031215612d7e57600080fd5b6000612d8c84828501612d03565b91505092915050565b60008060408385031215612da857600080fd5b6000612db685828601612d03565b9250506020612dc785828601612d03565b9150509250929050565b600080600060608486031215612de657600080fd5b6000612df486828701612d03565b9350506020612e0586828701612d03565b9250506040612e1686828701612d2d565b9150509250925092565b600080600080600080600060e0888a031215612e3b57600080fd5b6000612e498a828b01612d03565b9750506020612e5a8a828b01612d03565b9650506040612e6b8a828b01612d2d565b9550506060612e7c8a828b01612d2d565b9450506080612e8d8a828b01612d57565b93505060a0612e9e8a828b01612d18565b92505060c0612eaf8a828b01612d18565b91505092959891949750929550565b60008060408385031215612ed157600080fd5b6000612edf85828601612d03565b9250506020612ef085828601612d2d565b9150509250929050565b60008060008060008060c08789031215612f1357600080fd5b6000612f2189828a01612d03565b9650506020612f3289828a01612d2d565b9550506040612f4389828a01612d2d565b9450506060612f5489828a01612d57565b9350506080612f6589828a01612d18565b92505060a0612f7689828a01612d18565b9150509295509295509295565b60008060408385031215612f9657600080fd5b6000612fa485828601612d03565b9250506020612fb585828601612d42565b9150509250929050565b600060208284031215612fd157600080fd5b6000612fdf84828501612d2d565b91505092915050565b612ff181614052565b82525050565b61300081614064565b82525050565b61300f81614070565b82525050565b61302661302182614070565b61414e565b82525050565b600061303782613f70565b6130418185613f7b565b93506130518185602086016140e9565b61305a816141e5565b840191505092915050565b6000613072601883613f7b565b91507f45434453413a20696e76616c6964207369676e617475726500000000000000006000830152602082019050919050565b60006130b2602383613f7b565b91507f45524332303a207472616e7366657220746f20746865207a65726f206164647260008301527f65737300000000000000000000000000000000000000000000000000000000006020830152604082019050919050565b6000613118601f83613f7b565b91507f4552433230566f7465733a20626c6f636b206e6f7420796574206d696e6564006000830152602082019050919050565b6000613158601483613f7b565b91507f5061757361626c653a206e6f74207061757365640000000000000000000000006000830152602082019050919050565b6000613198601d83613f7b565b91507f4552433230566f7465733a207369676e617475726520657870697265640000006000830152602082019050919050565b60006131d8602283613f7b565b91507f45524332303a206275726e20616d6f756e7420657863656564732062616c616e60008301527f63650000000000000000000000000000000000000000000000000000000000006020830152604082019050919050565b600061323e601f83613f7b565b91507f45434453413a20696e76616c6964207369676e6174757265206c656e677468006000830152602082019050919050565b600061327e601983613f7b565b91507f4552433230566f7465733a20696e76616c6964206e6f6e6365000000000000006000830152602082019050919050565b60006132be602683613f7b565b91507f4f776e61626c653a206e6577206f776e657220697320746865207a65726f206160008301527f64647265737300000000000000000000000000000000000000000000000000006020830152604082019050919050565b6000613324602283613f7b565b91507f45524332303a20617070726f766520746f20746865207a65726f20616464726560008301527f73730000000000000000000000000000000000000000000000000000000000006020830152604082019050919050565b600061338a600283613f8c565b91507f19010000000000000000000000000000000000000000000000000000000000006000830152600282019050919050565b60006133ca601d83613f7b565b91507f45524332303a20696e73756666696369656e7420616c6c6f77616e63650000006000830152602082019050919050565b600061340a601d83613f7b565b91507f45524332305065726d69743a206578706972656420646561646c696e650000006000830152602082019050919050565b600061344a602683613f7b565b91507f45524332303a207472616e7366657220616d6f756e742065786365656473206260008301527f616c616e636500000000000000000000000000000000000000000000000000006020830152604082019050919050565b60006134b0602283613f7b565b91507f45434453413a20696e76616c6964207369676e6174757265202773272076616c60008301527f75650000000000000000000000000000000000000000000000000000000000006020830152604082019050919050565b6000613516601083613f7b565b91507f5061757361626c653a20706175736564000000000000000000000000000000006000830152602082019050919050565b6000613556602283613f7b565b91507f45434453413a20696e76616c6964207369676e6174757265202776272076616c60008301527f75650000000000000000000000000000000000000000000000000000000000006020830152604082019050919050565b60006135bc601e83613f7b565b91507f45524332305065726d69743a20696e76616c6964207369676e617475726500006000830152602082019050919050565b60006135fc603083613f7b565b91507f4552433230566f7465733a20746f74616c20737570706c79207269736b73206f60008301527f766572666c6f77696e6720766f746573000000000000000000000000000000006020830152604082019050919050565b6000613662602083613f7b565b91507f4f776e61626c653a2063616c6c6572206973206e6f7420746865206f776e65726000830152602082019050919050565b60006136a2602783613f7b565b91507f53616665436173743a2076616c756520646f65736e27742066697420696e203260008301527f32342062697473000000000000000000000000000000000000000000000000006020830152604082019050919050565b6000613708602183613f7b565b91507f45524332303a206275726e2066726f6d20746865207a65726f2061646472657360008301527f73000000000000000000000000000000000000000000000000000000000000006020830152604082019050919050565b600061376e602583613f7b565b91507f45524332303a207472616e736665722066726f6d20746865207a65726f20616460008301527f64726573730000000000000000000000000000000000000000000000000000006020830152604082019050919050565b60006137d4602683613f7b565b91507f53616665436173743a2076616c756520646f65736e27742066697420696e203360008301527f32206269747300000000000000000000000000000000000000000000000000006020830152604082019050919050565b600061383a602483613f7b565b91507f45524332303a20617070726f76652066726f6d20746865207a65726f2061646460008301527f72657373000000000000000000000000000000000000000000000000000000006020830152604082019050919050565b60006138a0602583613f7b565b91507f45524332303a2064656372656173656420616c6c6f77616e63652062656c6f7760008301527f207a65726f0000000000000000000000000000000000000000000000000000006020830152604082019050919050565b6000613906601f83613f7b565b91507f45524332303a206d696e7420746f20746865207a65726f2061646472657373006000830152602082019050919050565b60408201600082015161394f6000850182613986565b5060208201516139626020850182613968565b50505050565b6139718161409a565b82525050565b613980816140c2565b82525050565b61398f816140cc565b82525050565b61399e816140cc565b82525050565b6139ad816140dc565b82525050565b60006139be8261337d565b91506139ca8285613015565b6020820191506139da8284613015565b6020820191508190509392505050565b60006020820190506139ff6000830184612fe8565b92915050565b6000602082019050613a1a6000830184612ff7565b92915050565b6000602082019050613a356000830184613006565b92915050565b600060c082019050613a506000830189613006565b613a5d6020830188612fe8565b613a6a6040830187612fe8565b613a776060830186613977565b613a846080830185613977565b613a9160a0830184613977565b979650505050505050565b6000608082019050613ab16000830187613006565b613abe6020830186612fe8565b613acb6040830185613977565b613ad86060830184613977565b95945050505050565b600060a082019050613af66000830188613006565b613b036020830187613006565b613b106040830186613006565b613b1d6060830185613977565b613b2a6080830184612fe8565b9695505050505050565b6000608082019050613b496000830187613006565b613b5660208301866139a4565b613b636040830185613006565b613b706060830184613006565b95945050505050565b60006020820190508181036000830152613b93818461302c565b905092915050565b60006020820190508181036000830152613bb481613065565b9050919050565b60006020820190508181036000830152613bd4816130a5565b9050919050565b60006020820190508181036000830152613bf48161310b565b9050919050565b60006020820190508181036000830152613c148161314b565b9050919050565b60006020820190508181036000830152613c348161318b565b9050919050565b60006020820190508181036000830152613c54816131cb565b9050919050565b60006020820190508181036000830152613c7481613231565b9050919050565b60006020820190508181036000830152613c9481613271565b9050919050565b60006020820190508181036000830152613cb4816132b1565b9050919050565b60006020820190508181036000830152613cd481613317565b9050919050565b60006020820190508181036000830152613cf4816133bd565b9050919050565b60006020820190508181036000830152613d14816133fd565b9050919050565b60006020820190508181036000830152613d348161343d565b9050919050565b60006020820190508181036000830152613d54816134a3565b9050919050565b60006020820190508181036000830152613d7481613509565b9050919050565b60006020820190508181036000830152613d9481613549565b9050919050565b60006020820190508181036000830152613db4816135af565b9050919050565b60006020820190508181036000830152613dd4816135ef565b9050919050565b60006020820190508181036000830152613df481613655565b9050919050565b60006020820190508181036000830152613e1481613695565b9050919050565b60006020820190508181036000830152613e34816136fb565b9050919050565b60006020820190508181036000830152613e5481613761565b9050919050565b60006020820190508181036000830152613e74816137c7565b9050919050565b60006020820190508181036000830152613e948161382d565b9050919050565b60006020820190508181036000830152613eb481613893565b9050919050565b60006020820190508181036000830152613ed4816138f9565b9050919050565b6000604082019050613ef06000830184613939565b92915050565b6000602082019050613f0b6000830184613977565b92915050565b6000604082019050613f266000830185613977565b613f336020830184613977565b9392505050565b6000602082019050613f4f6000830184613995565b92915050565b6000602082019050613f6a60008301846139a4565b92915050565b600081519050919050565b600082825260208201905092915050565b600081905092915050565b6000613fa2826140c2565b9150613fad836140c2565b9250827fffffffffffffffffffffffffffffffffffffffffffffffffffffffffffffffff03821115613fe257613fe1614158565b5b828201905092915050565b6000613ff8826140c2565b9150614003836140c2565b92508261401357614012614187565b5b828204905092915050565b6000614029826140c2565b9150614034836140c2565b92508282101561404757614046614158565b5b828203905092915050565b600061405d8261407a565b9050919050565b60008115159050919050565b6000819050919050565b600073ffffffffffffffffffffffffffffffffffffffff82169050919050565b60007bffffffffffffffffffffffffffffffffffffffffffffffffffffffff82169050919050565b6000819050919050565b600063ffffffff82169050919050565b600060ff82169050919050565b60005b838110156141075780820151818401526020810190506140ec565b83811115614116576000848401525b50505050565b6000600282049050600182168061413457607f821691505b60208210811415614148576141476141b6565b5b50919050565b6000819050919050565b7f4e487b7100000000000000000000000000000000000000000000000000000000600052601160045260246000fd5b7f4e487b7100000000000000000000000000000000000000000000000000000000600052601260045260246000fd5b7f4e487b7100000000000000000000000000000000000000000000000000000000600052602260045260246000fd5b6000601f19601f8301169050919050565b6141ff81614052565b811461420a57600080fd5b50565b61421681614070565b811461422157600080fd5b50565b61422d816140c2565b811461423857600080fd5b50565b614244816140cc565b811461424f57600080fd5b50565b61425b816140dc565b811461426657600080fd5b5056fea2646970667358221220f7f16dcefe018099df34230e51d2f024d28f2c1ba75ed22d334e25ae715e9e5964736f6c63430008000033",
  "immutableReferences": {
    "2591": [
      {
        "length": 32,
        "start": 5915
      }
    ],
    "2593": [
      {
        "length": 32,
        "start": 5874
      }
    ],
    "2595": [
      {
        "length": 32,
        "start": 5788
      }
    ],
    "2597": [
      {
        "length": 32,
        "start": 5991
      }
    ],
    "2599": [
      {
        "length": 32,
        "start": 6024
      }
    ],
    "2601": [
      {
        "length": 32,
        "start": 5958
      }
    ]
  },
  "source": "// SPDX-License-Identifier: MIT\npragma solidity >=0.8.0;\n\nimport \"@openzeppelin/contracts/token/ERC20/ERC20.sol\";\nimport \"@openzeppelin/contracts/token/ERC20/extensions/ERC20Burnable.sol\";\nimport \"@openzeppelin/contracts/security/Pausable.sol\";\nimport \"@openzeppelin/contracts/access/Ownable.sol\";\nimport \"@openzeppelin/contracts/token/ERC20/extensions/draft-ERC20Permit.sol\";\nimport \"@openzeppelin/contracts/token/ERC20/extensions/ERC20Votes.sol\";\n\n/**\n * MyToken Contract\n */\ncontract MyToken is\n    ERC20,\n    ERC20Burnable,\n    Pausable,\n    Ownable,\n    ERC20Permit,\n    ERC20Votes\n{\n    // \n    string tokenName;\n    // \n    string tokenSymbol;\n\n    /**\n     * \n     * @param _name \n     * @param _symbol \n     */\n    constructor(string memory _name, string memory _symbol)\n        ERC20(_name, _symbol)\n        ERC20Permit(_name)\n    {\n        // \n        tokenName = _name;\n        tokenSymbol = _symbol;\n    }\n\n    /**\n     * \n     */\n    function pause() public onlyOwner {\n        _pause();\n    }\n\n    /**\n     * \n     */\n    function unpause() public onlyOwner {\n        _unpause();\n    }\n\n    /**\n     * \n     * @param to \n     * @param amount \n     */\n    function mint(address to, uint256 amount) public onlyOwner {\n        _mint(to, amount);\n    }\n\n    /**\n     * \n     * @param to \n     * @param amount \n     */\n    function burnToken(address to, uint256 amount) public onlyOwner {\n        _burn(to, amount);\n    }\n\n    /**\n     * \n     * @param from \n     * @param to \n     * @param amount \n     */\n    function _beforeTokenTransfer(\n        address from,\n        address to,\n        uint256 amount\n    ) internal override whenNotPaused {\n        super._beforeTokenTransfer(from, to, amount);\n    }\n\n    /**\n     * \n     * @param from \n     * @param to \n     * @param amount \n     */\n    function _afterTokenTransfer(\n        address from,\n        address to,\n        uint256 amount\n    ) internal override(ERC20, ERC20Votes) {\n        super._afterTokenTransfer(from, to, amount);\n    }\n\n    /**\n     * \n     */\n    function _mint(address to, uint256 amount)\n        internal\n        override(ERC20, ERC20Votes)\n    {\n        super._mint(to, amount);\n    }\n\n    /**\n     * \n     */\n    function _burn(address account, uint256 amount)\n        internal\n        override(ERC20, ERC20Votes)\n    {\n        super._burn(account, amount);\n    }\n}\n",
  "sourcePath": "/Users/harukikondo/git/IDQ/backend/contracts/Token/MyToken.sol",
  "compiler": {
    "name": "solc",
    "version": "0.8.0+commit.c7dfd78e.Emscripten.clang"
  },
  "schemaVersion": "3.4.3",
  "updatedAt": "2023-02-23T07:27:14.589Z",
  "networkType": "ethereum",
  "devdoc": {
    "kind": "dev",
    "methods": {
      "DOMAIN_SEPARATOR()": {
        "details": "See {IERC20Permit-DOMAIN_SEPARATOR}."
      },
      "allowance(address,address)": {
        "details": "See {IERC20-allowance}."
      },
      "approve(address,uint256)": {
        "details": "See {IERC20-approve}. NOTE: If `amount` is the maximum `uint256`, the allowance is not updated on `transferFrom`. This is semantically equivalent to an infinite approval. Requirements: - `spender` cannot be the zero address."
      },
      "balanceOf(address)": {
        "details": "See {IERC20-balanceOf}."
      },
      "burn(uint256)": {
        "details": "Destroys `amount` tokens from the caller. See {ERC20-_burn}."
      },
      "burnFrom(address,uint256)": {
        "details": "Destroys `amount` tokens from `account`, deducting from the caller's allowance. See {ERC20-_burn} and {ERC20-allowance}. Requirements: - the caller must have allowance for ``accounts``'s tokens of at least `amount`."
      },
      "burnToken(address,uint256)": {
        "params": {
          "amount": "",
          "to": ""
        }
      },
      "checkpoints(address,uint32)": {
        "details": "Get the `pos`-th checkpoint for `account`."
      },
      "constructor": {
        "params": {
          "_name": "",
          "_symbol": ""
        }
      },
      "decimals()": {
        "details": "Returns the number of decimals used to get its user representation. For example, if `decimals` equals `2`, a balance of `505` tokens should be displayed to a user as `5.05` (`505 / 10 ** 2`). Tokens usually opt for a value of 18, imitating the relationship between Ether and Wei. This is the value {ERC20} uses, unless this function is overridden; NOTE: This information is only used for _display_ purposes: it in no way affects any of the arithmetic of the contract, including {IERC20-balanceOf} and {IERC20-transfer}."
      },
      "decreaseAllowance(address,uint256)": {
        "details": "Atomically decreases the allowance granted to `spender` by the caller. This is an alternative to {approve} that can be used as a mitigation for problems described in {IERC20-approve}. Emits an {Approval} event indicating the updated allowance. Requirements: - `spender` cannot be the zero address. - `spender` must have allowance for the caller of at least `subtractedValue`."
      },
      "delegate(address)": {
        "details": "Delegate votes from the sender to `delegatee`."
      },
      "delegateBySig(address,uint256,uint256,uint8,bytes32,bytes32)": {
        "details": "Delegates votes from signer to `delegatee`"
      },
      "delegates(address)": {
        "details": "Get the address `account` is currently delegating to."
      },
      "getPastTotalSupply(uint256)": {
        "details": "Retrieve the `totalSupply` at the end of `blockNumber`. Note, this value is the sum of all balances. It is but NOT the sum of all the delegated votes! Requirements: - `blockNumber` must have been already mined"
      },
      "getPastVotes(address,uint256)": {
        "details": "Retrieve the number of votes for `account` at the end of `blockNumber`. Requirements: - `blockNumber` must have been already mined"
      },
      "getVotes(address)": {
        "details": "Gets the current votes balance for `account`"
      },
      "increaseAllowance(address,uint256)": {
        "details": "Atomically increases the allowance granted to `spender` by the caller. This is an alternative to {approve} that can be used as a mitigation for problems described in {IERC20-approve}. Emits an {Approval} event indicating the updated allowance. Requirements: - `spender` cannot be the zero address."
      },
      "mint(address,uint256)": {
        "params": {
          "amount": "",
          "to": ""
        }
      },
      "name()": {
        "details": "Returns the name of the token."
      },
      "nonces(address)": {
        "details": "See {IERC20Permit-nonces}."
      },
      "numCheckpoints(address)": {
        "details": "Get number of checkpoints for `account`."
      },
      "owner()": {
        "details": "Returns the address of the current owner."
      },
      "paused()": {
        "details": "Returns true if the contract is paused, and false otherwise."
      },
      "permit(address,address,uint256,uint256,uint8,bytes32,bytes32)": {
        "details": "See {IERC20Permit-permit}."
      },
      "renounceOwnership()": {
        "details": "Leaves the contract without owner. It will not be possible to call `onlyOwner` functions anymore. Can only be called by the current owner. NOTE: Renouncing ownership will leave the contract without an owner, thereby removing any functionality that is only available to the owner."
      },
      "symbol()": {
        "details": "Returns the symbol of the token, usually a shorter version of the name."
      },
      "totalSupply()": {
        "details": "See {IERC20-totalSupply}."
      },
      "transfer(address,uint256)": {
        "details": "See {IERC20-transfer}. Requirements: - `to` cannot be the zero address. - the caller must have a balance of at least `amount`."
      },
      "transferFrom(address,address,uint256)": {
        "details": "See {IERC20-transferFrom}. Emits an {Approval} event indicating the updated allowance. This is not required by the EIP. See the note at the beginning of {ERC20}. NOTE: Does not update the allowance if the current allowance is the maximum `uint256`. Requirements: - `from` and `to` cannot be the zero address. - `from` must have a balance of at least `amount`. - the caller must have allowance for ``from``'s tokens of at least `amount`."
      },
      "transferOwnership(address)": {
        "details": "Transfers ownership of the contract to a new account (`newOwner`). Can only be called by the current owner."
      }
    },
    "version": 1
  },
  "userdoc": {
    "kind": "user",
    "methods": {
      "burnToken(address,uint256)": {
        "notice": ""
      },
      "constructor": {
        "notice": ""
      },
      "mint(address,uint256)": {
        "notice": ""
      },
      "pause()": {
        "notice": ""
      },
      "unpause()": {
        "notice": ""
      }
    },
    "notice": "MyToken Contract",
    "version": 1
  }
}