{
  "contractName": "WalletFactoryV4",
  "abi": [
    {
      "anonymous": false,
      "inputs": [
        {
          "indexed": false,
          "internalType": "address",
          "name": "addr",
          "type": "address"
        },
        {
          "indexed": false,
          "internalType": "string",
          "name": "did",
          "type": "string"
        }
      ],
      "name": "Registered",
      "type": "event"
    },
    {
      "anonymous": false,
      "inputs": [
        {
          "indexed": true,
          "internalType": "contract MultiSigWallet",
          "name": "wallet",
          "type": "address"
        },
        {
          "indexed": false,
          "internalType": "string",
          "name": "name",
          "type": "string"
        },
        {
          "indexed": false,
          "internalType": "address[]",
          "name": "owners",
          "type": "address[]"
        },
        {
          "indexed": false,
          "internalType": "uint256",
          "name": "required",
          "type": "uint256"
        }
      ],
      "name": "WalletCreated",
      "type": "event"
    },
    {
      "inputs": [
        {
          "internalType": "address",
          "name": "",
          "type": "address"
        }
      ],
      "name": "dids",
      "outputs": [
        {
          "internalType": "string",
          "name": "",
          "type": "string"
        }
      ],
      "stateMutability": "view",
      "type": "function"
    },
    {
      "inputs": [
        {
          "internalType": "address",
          "name": "",
          "type": "address"
        }
      ],
      "name": "isRegistered",
      "outputs": [
        {
          "internalType": "bool",
          "name": "",
          "type": "bool"
        }
      ],
      "stateMutability": "view",
      "type": "function"
    },
    {
      "inputs": [
        {
          "internalType": "uint256",
          "name": "",
          "type": "uint256"
        }
      ],
      "name": "wallets",
      "outputs": [
        {
          "internalType": "contract MultiSigWallet",
          "name": "",
          "type": "address"
        }
      ],
      "stateMutability": "view",
      "type": "function"
    },
    {
      "inputs": [],
      "name": "walletsCount",
      "outputs": [
        {
          "internalType": "uint256",
          "name": "",
          "type": "uint256"
        }
      ],
      "stateMutability": "view",
      "type": "function"
    },
    {
      "inputs": [
        {
          "internalType": "string",
          "name": "_name",
          "type": "string"
        },
        {
          "internalType": "address[]",
          "name": "_owners",
          "type": "address[]"
        },
        {
          "internalType": "uint256",
          "name": "_required",
          "type": "uint256"
        }
      ],
      "name": "createWallet",
      "outputs": [],
      "stateMutability": "nonpayable",
      "type": "function"
    },
    {
      "inputs": [
        {
          "internalType": "uint256",
          "name": "limit",
          "type": "uint256"
        },
        {
          "internalType": "uint256",
          "name": "offset",
          "type": "uint256"
        }
      ],
      "name": "getWallets",
      "outputs": [
        {
          "internalType": "contract MultiSigWallet[]",
          "name": "coll",
          "type": "address[]"
        }
      ],
      "stateMutability": "view",
      "type": "function"
    },
    {
      "inputs": [
        {
          "internalType": "string",
          "name": "_did",
          "type": "string"
        }
      ],
      "name": "register",
      "outputs": [],
      "stateMutability": "nonpayable",
      "type": "function"
    }
  ],
  "bytecode": "0x608060405234801561001057600080fd5b50613a63806100206000396000f3fe60806040523480156200001157600080fd5b5060043610620000885760003560e01c80637ad71f7211620000635780637ad71f72146200011b578063c3c5a5471462000151578063d4e15c781462000187578063f2c298be14620001a75762000088565b80633593f81b146200008d57806347b2470d14620000c35780634ce9dde514620000e5575b600080fd5b620000ab6004803603810190620000a591906200096c565b620001c7565b604051620000ba919062000dbd565b60405180910390f35b620000cd6200026f565b604051620000dc919062000e70565b60405180910390f35b620001036004803603810190620000fd919062000a91565b6200027b565b60405162000112919062000d5f565b60405180910390f35b62000139600480360381019062000133919062000a65565b62000493565b60405162000148919062000da0565b60405180910390f35b6200016f60048036038101906200016991906200096c565b620004d3565b6040516200017e919062000d83565b60405180910390f35b620001a560048036038101906200019f9190620009dd565b620004f3565b005b620001c56004803603810190620001bf919062000998565b620005f1565b005b60026020528060005260406000206000915090508054620001e89062001100565b80601f0160208091040260200160405190810160405280929190818152602001828054620002169062001100565b8015620002675780601f106200023b5761010080835404028352916020019162000267565b820191906000526020600020905b8154815290600101906020018083116200024957829003601f168201915b505050505081565b60008080549050905090565b6060620002876200026f565b821115620002cc576040517f08c379a0000000000000000000000000000000000000000000000000000000008152600401620002c39062000e2c565b60405180910390fd5b600082620002d96200026f565b620002e591906200100e565b9050838110620002f65783620002f8565b805b9050601481106200030b5760146200030d565b805b90508067ffffffffffffffff81111562000350577f4e487b7100000000000000000000000000000000000000000000000000000000600052604160045260246000fd5b6040519080825280602002602001820160405280156200037f5781602001602082028036833780820191505090505b50915060005b818110156200048b57600081856200039e919062000fb1565b81548110620003d6577f4e487b7100000000000000000000000000000000000000000000000000000000600052603260045260246000fd5b9060005260206000200160009054906101000a900473ffffffffffffffffffffffffffffffffffffffff168382815181106200043b577f4e487b7100000000000000000000000000000000000000000000000000000000600052603260045260246000fd5b602002602001019073ffffffffffffffffffffffffffffffffffffffff16908173ffffffffffffffffffffffffffffffffffffffff16815250508080620004829062001136565b91505062000385565b505092915050565b60008181548110620004a457600080fd5b906000526020600020016000915054906101000a900473ffffffffffffffffffffffffffffffffffffffff1681565b60016020528060005260406000206000915054906101000a900460ff1681565b600083838360405162000506906200076c565b620005149392919062000de1565b604051809103906000f08015801562000531573d6000803e3d6000fd5b5090506000819080600181540180825580915050600190039060005260206000200160009091909190916101000a81548173ffffffffffffffffffffffffffffffffffffffff021916908373ffffffffffffffffffffffffffffffffffffffff1602179055508073ffffffffffffffffffffffffffffffffffffffff167f467134363b98966f95b3f5c5b3a4fef880fcf46db0752f27f77d960d06a40070858585604051620005e39392919062000de1565b60405180910390a250505050565b600160003373ffffffffffffffffffffffffffffffffffffffff1673ffffffffffffffffffffffffffffffffffffffff16815260200190815260200160002060009054906101000a900460ff161562000681576040517f08c379a0000000000000000000000000000000000000000000000000000000008152600401620006789062000e4e565b60405180910390fd5b60018060003373ffffffffffffffffffffffffffffffffffffffff1673ffffffffffffffffffffffffffffffffffffffff16815260200190815260200160002060006101000a81548160ff02191690831515021790555080600260003373ffffffffffffffffffffffffffffffffffffffff1673ffffffffffffffffffffffffffffffffffffffff16815260200190815260200160002090805190602001906200072d9291906200077a565b507fb3eccf73f39b1c07947c780b2b39df2a1bb058b4037b0a42d0881ca1a028a13233826040516200076192919062000d2b565b60405180910390a150565b6127d7806200125783390190565b828054620007889062001100565b90600052602060002090601f016020900481019282620007ac5760008555620007f8565b82601f10620007c757805160ff1916838001178555620007f8565b82800160010185558215620007f8579182015b82811115620007f7578251825591602001919060010190620007da565b5b5090506200080791906200080b565b5090565b5b80821115620008265760008160009055506001016200080c565b5090565b6000620008416200083b8462000ec1565b62000e8d565b905080838252602082019050828560208602820111156200086157600080fd5b60005b858110156200089557816200087a8882620008e4565b84526020840193506020830192505060018101905062000864565b5050509392505050565b6000620008b6620008b08462000ef0565b62000e8d565b905082815260208101848484011115620008cf57600080fd5b620008dc848285620010bb565b509392505050565b600081359050620008f58162001222565b92915050565b600082601f8301126200090d57600080fd5b81356200091f8482602086016200082a565b91505092915050565b600082601f8301126200093a57600080fd5b81356200094c8482602086016200089f565b91505092915050565b60008135905062000966816200123c565b92915050565b6000602082840312156200097f57600080fd5b60006200098f84828501620008e4565b91505092915050565b600060208284031215620009ab57600080fd5b600082013567ffffffffffffffff811115620009c657600080fd5b620009d48482850162000928565b91505092915050565b600080600060608486031215620009f357600080fd5b600084013567ffffffffffffffff81111562000a0e57600080fd5b62000a1c8682870162000928565b935050602084013567ffffffffffffffff81111562000a3a57600080fd5b62000a4886828701620008fb565b925050604062000a5b8682870162000955565b9150509250925092565b60006020828403121562000a7857600080fd5b600062000a888482850162000955565b91505092915050565b6000806040838503121562000aa557600080fd5b600062000ab58582860162000955565b925050602062000ac88582860162000955565b9150509250929050565b600062000ae0838362000b06565b60208301905092915050565b600062000afa838362000c0d565b60208301905092915050565b62000b118162001049565b82525050565b62000b228162001049565b82525050565b600062000b358262000f43565b62000b41818562000f7e565b935062000b4e8362000f23565b8060005b8381101562000b8557815162000b69888262000ad2565b975062000b768362000f64565b92505060018101905062000b52565b5085935050505092915050565b600062000b9f8262000f4e565b62000bab818562000f8f565b935062000bb88362000f33565b8060005b8381101562000bef57815162000bd3888262000aec565b975062000be08362000f71565b92505060018101905062000bbc565b5085935050505092915050565b62000c07816200105d565b82525050565b62000c188162001093565b82525050565b62000c298162001093565b82525050565b600062000c3c8262000f59565b62000c48818562000fa0565b935062000c5a818560208601620010ca565b62000c658162001211565b840191505092915050565b600062000c7f60148362000fa0565b91507f6f6666736574206f7574206f6620626f756e64730000000000000000000000006000830152602082019050919050565b600062000cc160248362000fa0565b91507f54686973206164647265737320697320616c726561647920726567697374657260008301527f65642121000000000000000000000000000000000000000000000000000000006020830152604082019050919050565b62000d258162001089565b82525050565b600060408201905062000d42600083018562000b17565b818103602083015262000d56818462000c2f565b90509392505050565b6000602082019050818103600083015262000d7b818462000b92565b905092915050565b600060208201905062000d9a600083018462000bfc565b92915050565b600060208201905062000db7600083018462000c1e565b92915050565b6000602082019050818103600083015262000dd9818462000c2f565b905092915050565b6000606082019050818103600083015262000dfd818662000c2f565b9050818103602083015262000e13818562000b28565b905062000e24604083018462000d1a565b949350505050565b6000602082019050818103600083015262000e478162000c70565b9050919050565b6000602082019050818103600083015262000e698162000cb2565b9050919050565b600060208201905062000e87600083018462000d1a565b92915050565b6000604051905081810181811067ffffffffffffffff8211171562000eb75762000eb6620011e2565b5b8060405250919050565b600067ffffffffffffffff82111562000edf5762000ede620011e2565b5b602082029050602081019050919050565b600067ffffffffffffffff82111562000f0e5762000f0d620011e2565b5b601f19601f8301169050602081019050919050565b6000819050602082019050919050565b6000819050602082019050919050565b600081519050919050565b600081519050919050565b600081519050919050565b6000602082019050919050565b6000602082019050919050565b600082825260208201905092915050565b600082825260208201905092915050565b600082825260208201905092915050565b600062000fbe8262001089565b915062000fcb8362001089565b9250827fffffffffffffffffffffffffffffffffffffffffffffffffffffffffffffffff0382111562001003576200100262001184565b5b828201905092915050565b60006200101b8262001089565b9150620010288362001089565b9250828210156200103e576200103d62001184565b5b828203905092915050565b6000620010568262001069565b9050919050565b60008115159050919050565b600073ffffffffffffffffffffffffffffffffffffffff82169050919050565b6000819050919050565b6000620010a082620010a7565b9050919050565b6000620010b48262001069565b9050919050565b82818337600083830152505050565b60005b83811015620010ea578082015181840152602081019050620010cd565b83811115620010fa576000848401525b50505050565b600060028204905060018216806200111957607f821691505b6020821081141562001130576200112f620011b3565b5b50919050565b6000620011438262001089565b91507fffffffffffffffffffffffffffffffffffffffffffffffffffffffffffffffff82141562001179576200117862001184565b5b600182019050919050565b7f4e487b7100000000000000000000000000000000000000000000000000000000600052601160045260246000fd5b7f4e487b7100000000000000000000000000000000000000000000000000000000600052602260045260246000fd5b7f4e487b7100000000000000000000000000000000000000000000000000000000600052604160045260246000fd5b6000601f19601f8301169050919050565b6200122d8162001049565b81146200123957600080fd5b50565b620012478162001089565b81146200125357600080fd5b5056fe60806040523480156200001157600080fd5b50604051620027d7380380620027d7833981810160405281019062000037919062000516565b60008251116200007e576040517f08c379a0000000000000000000000000000000000000000000000000000000008152600401620000759062000736565b60405180910390fd5b60008111801562000090575081518111155b620000d2576040517f08c379a0000000000000000000000000000000000000000000000000000000008152600401620000c99062000758565b60405180910390fd5b60005b8251811015620002fa5760008382815181106200011b577f4e487b7100000000000000000000000000000000000000000000000000000000600052603260045260246000fd5b60200260200101519050600073ffffffffffffffffffffffffffffffffffffffff168173ffffffffffffffffffffffffffffffffffffffff16141562000198576040517f08c379a00000000000000000000000000000000000000000000000000000000081526004016200018f9062000714565b60405180910390fd5b600460008273ffffffffffffffffffffffffffffffffffffffff1673ffffffffffffffffffffffffffffffffffffffff16815260200190815260200160002060009054906101000a900460ff161562000228576040517f08c379a00000000000000000000000000000000000000000000000000000000081526004016200021f90620006f2565b60405180910390fd5b6001600460008373ffffffffffffffffffffffffffffffffffffffff1673ffffffffffffffffffffffffffffffffffffffff16815260200190815260200160002060006101000a81548160ff0219169083151502179055506001819080600181540180825580915050600190039060005260206000200160009091909190916101000a81548173ffffffffffffffffffffffffffffffffffffffff021916908373ffffffffffffffffffffffffffffffffffffffff160217905550508080620002f190620008cb565b915050620000d5565b5082600090805190602001906200031392919062000324565b5080600281905550505050620009da565b828054620003329062000895565b90600052602060002090601f016020900481019282620003565760008555620003a2565b82601f106200037157805160ff1916838001178555620003a2565b82800160010185558215620003a2579182015b82811115620003a157825182559160200191906001019062000384565b5b509050620003b19190620003b5565b5090565b5b80821115620003d0576000816000905550600101620003b6565b5090565b6000620003eb620003e584620007ae565b6200077a565b905080838252602082019050828560208602820111156200040b57600080fd5b60005b858110156200043f57816200042488826200048e565b8452602084019350602083019250506001810190506200040e565b5050509392505050565b6000620004606200045a84620007dd565b6200077a565b9050828152602081018484840111156200047957600080fd5b620004868482856200085f565b509392505050565b6000815190506200049f81620009a6565b92915050565b600082601f830112620004b757600080fd5b8151620004c9848260208601620003d4565b91505092915050565b600082601f830112620004e457600080fd5b8151620004f684826020860162000449565b91505092915050565b6000815190506200051081620009c0565b92915050565b6000806000606084860312156200052c57600080fd5b600084015167ffffffffffffffff8111156200054757600080fd5b6200055586828701620004d2565b935050602084015167ffffffffffffffff8111156200057357600080fd5b6200058186828701620004a5565b92505060406200059486828701620004ff565b9150509250925092565b6000620005ad60138362000810565b91507f6f776e6572206973206e6f7420756e69717565000000000000000000000000006000830152602082019050919050565b6000620005ef600f8362000810565b91507f696e76616c6964206164647265737300000000000000000000000000000000006000830152602082019050919050565b60006200063160328362000810565b91507f6e756d626572206f66206f776e657220616464726573736573206d757374206260008301527f65206d6f7265207468616e207a65726f212100000000000000000000000000006020830152604082019050919050565b60006200069960218362000810565b91507f696e76616c6964207265717569726564206e756d626572206f66206f776e657260008301527f73000000000000000000000000000000000000000000000000000000000000006020830152604082019050919050565b600060208201905081810360008301526200070d816200059e565b9050919050565b600060208201905081810360008301526200072f81620005e0565b9050919050565b60006020820190508181036000830152620007518162000622565b9050919050565b6000602082019050818103600083015262000773816200068a565b9050919050565b6000604051905081810181811067ffffffffffffffff82111715620007a457620007a362000977565b5b8060405250919050565b600067ffffffffffffffff821115620007cc57620007cb62000977565b5b602082029050602081019050919050565b600067ffffffffffffffff821115620007fb57620007fa62000977565b5b601f19601f8301169050602081019050919050565b600082825260208201905092915050565b60006200082e8262000835565b9050919050565b600073ffffffffffffffffffffffffffffffffffffffff82169050919050565b6000819050919050565b60005b838110156200087f57808201518184015260208101905062000862565b838111156200088f576000848401525b50505050565b60006002820490506001821680620008ae57607f821691505b60208210811415620008c557620008c462000948565b5b50919050565b6000620008d88262000855565b91507fffffffffffffffffffffffffffffffffffffffffffffffffffffffffffffffff8214156200090e576200090d62000919565b5b600182019050919050565b7f4e487b7100000000000000000000000000000000000000000000000000000000600052601160045260246000fd5b7f4e487b7100000000000000000000000000000000000000000000000000000000600052602260045260246000fd5b7f4e487b7100000000000000000000000000000000000000000000000000000000600052604160045260246000fd5b620009b18162000821565b8114620009bd57600080fd5b50565b620009cb8162000855565b8114620009d757600080fd5b50565b611ded80620009ea6000396000f3fe6080604052600436106100ec5760003560e01c80638253951a1161008a578063dc8452cd11610059578063dc8452cd14610364578063e0cedd9c1461038f578063eda8b7cd146103ba578063fe0d94c1146103f757610141565b80638253951a146102935780639ace38c2146102d0578063b759f95414610310578063cf8d8ca01461033957610141565b806317d7de7c116100c657806317d7de7c146101d757806320c5429b146102025780632f54bf6e1461022b57806373ff81cc1461026857610141565b8063025e7c27146101465780631398a5f61461018357806314de327f146101ae57610141565b36610141573373ffffffffffffffffffffffffffffffffffffffff167fe1fffcc4923d04b559f4d29a8bfc6cda04eb5b0d3c460751c2402c5c5cc9109c346040516101379190611add565b60405180910390a2005b600080fd5b34801561015257600080fd5b5061016d600480360381019061016891906114eb565b610413565b60405161017a9190611957565b60405180910390f35b34801561018f57600080fd5b50610198610452565b6040516101a59190611add565b60405180910390f35b3480156101ba57600080fd5b506101d560048036038101906101d0919061147f565b61045c565b005b3480156101e357600080fd5b506101ec610665565b6040516101f991906119fb565b60405180910390f35b34801561020e57600080fd5b50610229600480360381019061022491906114eb565b6106f7565b005b34801561023757600080fd5b50610252600480360381019061024d9190611456565b610988565b60405161025f91906119e0565b60405180910390f35b34801561027457600080fd5b5061027d6109a8565b60405161028a9190611add565b60405180910390f35b34801561029f57600080fd5b506102ba60048036038101906102b59190611514565b6109b5565b6040516102c791906119e0565b60405180910390f35b3480156102dc57600080fd5b506102f760048036038101906102f291906114eb565b6109e4565b6040516103079493929190611972565b60405180910390f35b34801561031c57600080fd5b50610337600480360381019061033291906114eb565b610ad9565b005b34801561034557600080fd5b5061034e610d99565b60405161035b91906119fb565b60405180910390f35b34801561037057600080fd5b50610379610e27565b6040516103869190611add565b60405180910390f35b34801561039b57600080fd5b506103a4610e2d565b6040516103b191906119be565b60405180910390f35b3480156103c657600080fd5b506103e160048036038101906103dc91906114eb565b610f99565b6040516103ee9190611add565b60405180910390f35b610411600480360381019061040c91906114eb565b61109a565b005b6001818154811061042357600080fd5b906000526020600020016000915054906101000a900473ffffffffffffffffffffffffffffffffffffffff1681565b6000600254905090565b600460003373ffffffffffffffffffffffffffffffffffffffff1673ffffffffffffffffffffffffffffffffffffffff16815260200190815260200160002060009054906101000a900460ff166104e8576040517f08c379a00000000000000000000000000000000000000000000000000000000081526004016104df90611a7d565b60405180910390fd5b600360405180608001604052808673ffffffffffffffffffffffffffffffffffffffff16815260200185815260200184848080601f016020809104026020016040519081016040528093929190818152602001838380828437600081840152601f19601f82011690508083019250505050505050815260200160001515815250908060018154018082558091505060019003906000526020600020906004020160009091909190915060008201518160000160006101000a81548173ffffffffffffffffffffffffffffffffffffffff021916908373ffffffffffffffffffffffffffffffffffffffff1602179055506020820151816001015560408201518160020190805190602001906105fe92919061133f565b5060608201518160030160006101000a81548160ff021916908315150217905550505060016003805490506106339190611bf0565b7f08324b3d745b914e3abd4ffbfead91e3b78391a98c173202129215ab933adfbe60405160405180910390a250505050565b60606000805461067490611c9f565b80601f01602080910402602001604051908101604052809291908181526020018280546106a090611c9f565b80156106ed5780601f106106c2576101008083540402835291602001916106ed565b820191906000526020600020905b8154815290600101906020018083116106d057829003601f168201915b5050505050905090565b600460003373ffffffffffffffffffffffffffffffffffffffff1673ffffffffffffffffffffffffffffffffffffffff16815260200190815260200160002060009054906101000a900460ff16610783576040517f08c379a000000000000000000000000000000000000000000000000000000000815260040161077a90611a7d565b60405180910390fd5b8060038054905081106107cb576040517f08c379a00000000000000000000000000000000000000000000000000000000081526004016107c290611a9d565b60405180910390fd5b8160038181548110610806577f4e487b7100000000000000000000000000000000000000000000000000000000600052603260045260246000fd5b906000526020600020906004020160030160009054906101000a900460ff1615610865576040517f08c379a000000000000000000000000000000000000000000000000000000000815260040161085c90611a1d565b60405180910390fd5b60016005600085815260200190815260200160002060003373ffffffffffffffffffffffffffffffffffffffff1673ffffffffffffffffffffffffffffffffffffffff16815260200190815260200160002060006101000a81548160ff02191690831515021790556108d657600080fd5b60006005600085815260200190815260200160002060003373ffffffffffffffffffffffffffffffffffffffff1673ffffffffffffffffffffffffffffffffffffffff16815260200190815260200160002060006101000a81548160ff021916908315150217905550823373ffffffffffffffffffffffffffffffffffffffff167fec9ab91322523c899ede7830ec9bfc992b5981cdcc27b91162fb23de5791117b60405160405180910390a3505050565b60046020528060005260406000206000915054906101000a900460ff1681565b6000600180549050905090565b60056020528160005260406000206020528060005260406000206000915091509054906101000a900460ff1681565b600381815481106109f457600080fd5b90600052602060002090600402016000915090508060000160009054906101000a900473ffffffffffffffffffffffffffffffffffffffff1690806001015490806002018054610a4390611c9f565b80601f0160208091040260200160405190810160405280929190818152602001828054610a6f90611c9f565b8015610abc5780601f10610a9157610100808354040283529160200191610abc565b820191906000526020600020905b815481529060010190602001808311610a9f57829003601f168201915b5050505050908060030160009054906101000a900460ff16905084565b600460003373ffffffffffffffffffffffffffffffffffffffff1673ffffffffffffffffffffffffffffffffffffffff16815260200190815260200160002060009054906101000a900460ff16610b65576040517f08c379a0000000000000000000000000000000000000000000000000000000008152600401610b5c90611a7d565b60405180910390fd5b806003805490508110610bad576040517f08c379a0000000000000000000000000000000000000000000000000000000008152600401610ba490611a9d565b60405180910390fd5b816005600082815260200190815260200160002060003373ffffffffffffffffffffffffffffffffffffffff1673ffffffffffffffffffffffffffffffffffffffff16815260200190815260200160002060009054906101000a900460ff1615610c4c576040517f08c379a0000000000000000000000000000000000000000000000000000000008152600401610c4390611abd565b60405180910390fd5b8260038181548110610c87577f4e487b7100000000000000000000000000000000000000000000000000000000600052603260045260246000fd5b906000526020600020906004020160030160009054906101000a900460ff1615610ce6576040517f08c379a0000000000000000000000000000000000000000000000000000000008152600401610cdd90611a1d565b60405180910390fd5b60016005600086815260200190815260200160002060003373ffffffffffffffffffffffffffffffffffffffff1673ffffffffffffffffffffffffffffffffffffffff16815260200190815260200160002060006101000a81548160ff021916908315150217905550833373ffffffffffffffffffffffffffffffffffffffff167f90ec57f18fa7b15c6b8d5e4d1deb90796c74b2ff23d4d0cecad0cb42a96b312860405160405180910390a350505050565b60008054610da690611c9f565b80601f0160208091040260200160405190810160405280929190818152602001828054610dd290611c9f565b8015610e1f5780601f10610df457610100808354040283529160200191610e1f565b820191906000526020600020905b815481529060010190602001808311610e0257829003601f168201915b505050505081565b60025481565b60606003805480602002602001604051908101604052809291908181526020016000905b82821015610f9057838290600052602060002090600402016040518060800160405290816000820160009054906101000a900473ffffffffffffffffffffffffffffffffffffffff1673ffffffffffffffffffffffffffffffffffffffff1673ffffffffffffffffffffffffffffffffffffffff16815260200160018201548152602001600282018054610ee490611c9f565b80601f0160208091040260200160405190810160405280929190818152602001828054610f1090611c9f565b8015610f5d5780601f10610f3257610100808354040283529160200191610f5d565b820191906000526020600020905b815481529060010190602001808311610f4057829003601f168201915b505050505081526020016003820160009054906101000a900460ff16151515158152505081526020019060010190610e51565b50505050905090565b6000805b6001805490508110156110945760056000848152602001908152602001600020600060018381548110610ff9577f4e487b7100000000000000000000000000000000000000000000000000000000600052603260045260246000fd5b9060005260206000200160009054906101000a900473ffffffffffffffffffffffffffffffffffffffff1673ffffffffffffffffffffffffffffffffffffffff1673ffffffffffffffffffffffffffffffffffffffff16815260200190815260200160002060009054906101000a900460ff16156110815760018261107e9190611b9a565b91505b808061108c90611cd1565b915050610f9d565b50919050565b8060038054905081106110e2576040517f08c379a00000000000000000000000000000000000000000000000000000000081526004016110d990611a9d565b60405180910390fd5b816003818154811061111d577f4e487b7100000000000000000000000000000000000000000000000000000000600052603260045260246000fd5b906000526020600020906004020160030160009054906101000a900460ff161561117c576040517f08c379a000000000000000000000000000000000000000000000000000000000815260040161117390611a1d565b60405180910390fd5b60025461118884610f99565b10156111c9576040517f08c379a00000000000000000000000000000000000000000000000000000000081526004016111c090611a3d565b60405180910390fd5b600060038481548110611205577f4e487b7100000000000000000000000000000000000000000000000000000000600052603260045260246000fd5b9060005260206000209060040201905060018160030160006101000a81548160ff02191690831515021790555060008160000160009054906101000a900473ffffffffffffffffffffffffffffffffffffffff1673ffffffffffffffffffffffffffffffffffffffff168260010154836002016040516112859190611940565b60006040518083038185875af1925050503d80600081146112c2576040519150601f19603f3d011682016040523d82523d6000602084013e6112c7565b606091505b505090508061130b576040517f08c379a000000000000000000000000000000000000000000000000000000000815260040161130290611a5d565b60405180910390fd5b847fddb556f1d2c1ec821e910b019d3685b229db152a0ecd517ca7e24b8bd713928960405160405180910390a25050505050565b82805461134b90611c9f565b90600052602060002090601f01602090048101928261136d57600085556113b4565b82601f1061138657805160ff19168380011785556113b4565b828001600101855582156113b4579182015b828111156113b3578251825591602001919060010190611398565b5b5090506113c191906113c5565b5090565b5b808211156113de5760008160009055506001016113c6565b5090565b6000813590506113f181611d89565b92915050565b60008083601f84011261140957600080fd5b8235905067ffffffffffffffff81111561142257600080fd5b60208301915083600182028301111561143a57600080fd5b9250929050565b60008135905061145081611da0565b92915050565b60006020828403121561146857600080fd5b6000611476848285016113e2565b91505092915050565b6000806000806060858703121561149557600080fd5b60006114a3878288016113e2565b94505060206114b487828801611441565b935050604085013567ffffffffffffffff8111156114d157600080fd5b6114dd878288016113f7565b925092505092959194509250565b6000602082840312156114fd57600080fd5b600061150b84828501611441565b91505092915050565b6000806040838503121561152757600080fd5b600061153585828601611441565b9250506020611546858286016113e2565b9150509250929050565b600061155c83836118bf565b905092915050565b61156d81611c24565b82525050565b61157c81611c24565b82525050565b600061158d82611b1d565b6115978185611b4b565b9350836020820285016115a985611af8565b8060005b858110156115e557848403895281516115c68582611550565b94506115d183611b3e565b925060208a019950506001810190506115ad565b50829750879550505050505092915050565b61160081611c36565b82525050565b61160f81611c36565b82525050565b600061162082611b28565b61162a8185611b5c565b935061163a818560208601611c6c565b61164381611d78565b840191505092915050565b600061165982611b28565b6116638185611b6d565b9350611673818560208601611c6c565b61167c81611d78565b840191505092915050565b6000815461169481611c9f565b61169e8186611b7e565b945060018216600081146116b957600181146116ca576116fd565b60ff198316865281860193506116fd565b6116d385611b08565b60005b838110156116f5578154818901526001820191506020810190506116d6565b838801955050505b50505092915050565b600061171182611b33565b61171b8185611b89565b935061172b818560208601611c6c565b61173481611d78565b840191505092915050565b600061174c601883611b89565b91507f7468697320747820616c726561647920657865637574656400000000000000006000830152602082019050919050565b600061178c601483611b89565b91507f617070726f76616c73203c2072657175697265640000000000000000000000006000830152602082019050919050565b60006117cc600983611b89565b91507f7478206661696c696400000000000000000000000000000000000000000000006000830152602082019050919050565b600061180c602083611b89565b91507f6d73672e73656e646572206d757374206265206f776e657220616464726573736000830152602082019050919050565b600061184c601183611b89565b91507f747820646f6573206e6f742065786973740000000000000000000000000000006000830152602082019050919050565b600061188c601383611b89565b91507f747820616c726561647920617070726f766564000000000000000000000000006000830152602082019050919050565b60006080830160008301516118d76000860182611564565b5060208301516118ea6020860182611922565b50604083015184820360408601526119028282611615565b915050606083015161191760608601826115f7565b508091505092915050565b61192b81611c62565b82525050565b61193a81611c62565b82525050565b600061194c8284611687565b915081905092915050565b600060208201905061196c6000830184611573565b92915050565b60006080820190506119876000830187611573565b6119946020830186611931565b81810360408301526119a6818561164e565b90506119b56060830184611606565b95945050505050565b600060208201905081810360008301526119d88184611582565b905092915050565b60006020820190506119f56000830184611606565b92915050565b60006020820190508181036000830152611a158184611706565b905092915050565b60006020820190508181036000830152611a368161173f565b9050919050565b60006020820190508181036000830152611a568161177f565b9050919050565b60006020820190508181036000830152611a76816117bf565b9050919050565b60006020820190508181036000830152611a96816117ff565b9050919050565b60006020820190508181036000830152611ab68161183f565b9050919050565b60006020820190508181036000830152611ad68161187f565b9050919050565b6000602082019050611af26000830184611931565b92915050565b6000819050602082019050919050565b60008190508160005260206000209050919050565b600081519050919050565b600081519050919050565b600081519050919050565b6000602082019050919050565b600082825260208201905092915050565b600082825260208201905092915050565b600082825260208201905092915050565b600081905092915050565b600082825260208201905092915050565b6000611ba582611c62565b9150611bb083611c62565b9250827fffffffffffffffffffffffffffffffffffffffffffffffffffffffffffffffff03821115611be557611be4611d1a565b5b828201905092915050565b6000611bfb82611c62565b9150611c0683611c62565b925082821015611c1957611c18611d1a565b5b828203905092915050565b6000611c2f82611c42565b9050919050565b60008115159050919050565b600073ffffffffffffffffffffffffffffffffffffffff82169050919050565b6000819050919050565b60005b83811015611c8a578082015181840152602081019050611c6f565b83811115611c99576000848401525b50505050565b60006002820490506001821680611cb757607f821691505b60208210811415611ccb57611cca611d49565b5b50919050565b6000611cdc82611c62565b91507fffffffffffffffffffffffffffffffffffffffffffffffffffffffffffffffff821415611d0f57611d0e611d1a565b5b600182019050919050565b7f4e487b7100000000000000000000000000000000000000000000000000000000600052601160045260246000fd5b7f4e487b7100000000000000000000000000000000000000000000000000000000600052602260045260246000fd5b6000601f19601f8301169050919050565b611d9281611c24565b8114611d9d57600080fd5b50565b611da981611c62565b8114611db457600080fd5b5056fea2646970667358221220e54742020a29a7db0cc95019182541e05a1996f890f3c9393c64bb7cd404e9f364736f6c63430008000033a2646970667358221220e6709f59453fb12cda01f7ab08c5265398a965feb2fc64c9e8230fbd49308a3164736f6c63430008000033",
  "immutableReferences": {},
  "source": "// SPDX-License-Identifier: MIT\npragma solidity >=0.8.0;\n\nimport \"./MultiSigWallet.sol\";\n\n/**\n * WalletFactoryV4\n */\ncontract WalletFactoryV4 {\n    // MultiSigWallet\n    MultiSigWallet[] public wallets;\n    // \n    uint256 constant maxLimit = 20;\n\n    // mapping\n    mapping(address => bool) public isRegistered;\n    mapping(address => string) public dids;\n\n    // event\n    event WalletCreated(\n        MultiSigWallet indexed wallet,\n        string name,\n        address[] owners,\n        uint256 required\n    );\n    event Registered(address addr, string did);\n\n    /**\n     * MultiSigWallet\n     */\n    function walletsCount() public view returns (uint256) {\n        return wallets.length;\n    }\n\n    /**\n     * MultiSigWallet\n     * @param _name \n     * @param _owners \n     * @param _required \n     */\n    function createWallet(\n        string memory _name,\n        address[] memory _owners,\n        uint256 _required\n    ) public {\n        // \n        MultiSigWallet wallet = new MultiSigWallet(_name, _owners, _required);\n        // \n        wallets.push(wallet);\n        // \n        emit WalletCreated(wallet, _name, _owners, _required);\n    }\n\n    /**\n     * \n     */\n    function getWallets(uint256 limit, uint256 offset)\n        public\n        view\n        returns (MultiSigWallet[] memory coll)\n    {\n        require(offset <= walletsCount(), \"offset out of bounds\");\n        // limit\n        uint256 size = walletsCount() - offset;\n        size = size < limit ? size : limit;\n        // sizemaxLimit\n        size = size < maxLimit ? size : maxLimit;\n        coll = new MultiSigWallet[](size);\n\n        for (uint256 i = 0; i < size; i++) {\n            coll[i] = wallets[offset + i];\n        }\n\n        return coll;\n    }\n\n    /**\n     * register\n     * @param _did DID\n     */\n    function register(string memory _did) public {\n        // check\n        require(\n            !isRegistered[msg.sender],\n            \"This address is already registered!!\"\n        );\n\n        // set\n        isRegistered[msg.sender] = true;\n        dids[msg.sender] = _did;\n\n        emit Registered(msg.sender, _did);\n    }\n}\n",
  "sourcePath": "/Users/harukikondo/git/IDQ/backend/contracts/Wallet/WalletFactoryV4.sol",
  "compiler": {
    "name": "solc",
    "version": "0.8.0+commit.c7dfd78e.Emscripten.clang"
  },
  "schemaVersion": "3.4.3",
  "updatedAt": "2022-10-29T07:49:26.110Z",
  "devdoc": {
    "kind": "dev",
    "methods": {
      "createWallet(string,address[],uint256)": {
        "params": {
          "_name": "",
          "_owners": "",
          "_required": ""
        }
      },
      "register(string)": {
        "params": {
          "_did": "DID"
        }
      }
    },
    "version": 1
  },
  "userdoc": {
    "kind": "user",
    "methods": {
      "createWallet(string,address[],uint256)": {
        "notice": "MultiSigWallet"
      },
      "getWallets(uint256,uint256)": {
        "notice": ""
      },
      "register(string)": {
        "notice": "register"
      },
      "walletsCount()": {
        "notice": "MultiSigWallet"
      }
    },
    "notice": "WalletFactoryV4",
    "version": 1
  }
}